:04000000BDEF05F05B
:060008004982C9EF83F0FC
:100018004980D8CF9EF0E8CF9FF0E0CFA0F0F3CF93
:10002800A1F0F4CFA2F0F6CFA3F0F7CFA4F0F8CF69
:10003800A5F0F5CFA6F00E01C6A525EF00F027EF35
:1000480000F01BEF02F0CEA52CEF00F02EEF00F031
:100058001BEF02F0FDEF01F0730EC86E600EC76E65
:10006800CF51D8A43AEF00F03CEF00F045EF00F094
:10007800000E0101BC6F000EBB6F000EB66F000EC4
:10008800B56F310E176E010E186E0C0E2DECA3F025
:100098000001D02B19EF02F0F90EC86EC00EC76E22
:1000A800120E176E0C0E5BECA3F04CEF00F0F90E7D
:1000B800C86EC00EC76EC1C1BFF10101C06B110E81
:1000C800176E0C0E5BECA3F04CEF00F0F90EC86E47
:1000D800C00EC76EC1C1BDF10101BE6B140E176E13
:1000E8000C0E5BECA3F00101BF5100019B6F9A6BF2
:1000F8000101BB5100019A270101BC5100019B235A
:100108000101BD5100019A250101BB6FBE510001DB
:100118009B210101BC6F4CEF00F0F90EC86EC00EB8
:10012800C76EC1C1B9F10101BA6B130E176E0C0E7F
:100138005BECA3F04CEF00F0F90EC86EC00EC76E72
:10014800C1C1B7F10101B86B180E176E0C0E5BEC4C
:10015800A3F00101B95100019B6F9A6B0101B551E0
:1001680000019A270101B65100019B230101B751F3
:1001780000019A250101B56FB85100019B210101C9
:10018800B66F000E0001D06FCF2B100ECF19D8A478
:10019800D0EF00F0D2EF00F019EF02F0BBC19AF0F7
:1001A800BCC19BF0040E9C6F9B359B339A339C2FEC
:1001B800D8EF00F09AC0BBF19BC0BCF1CB51010154
:1001C800BB5DBB6F0001CC510101BC59BC6FB5C10F
:1001D8009AF0B6C19BF0040E00019C6F9B359B33CF
:1001E8009A339C2FF2EF00F09AC0B5F19BC0B6F19C
:1001F800C9510101B55DB56F0001CA510101B65978
:10020800B66FA7C129F0A8C12AF0A9C12BF0AAC1CD
:100218002CF0B5C117F0B6C118F0000E18BEFF0ECD
:10022800196E1A6E010E19EC9BF017C025F018C054
:1002380026F019C027F01AC028F01FEC91F025C04D
:100248006DF026C06EF027C06FF028C070F03CEC4F
:100258009EF06DC0B5F16EC0B6F1B5C117F0B6C16C
:1002680018F0000E18BEFF0E196E1A6E010E19EC6A
:100278009BF017C07DF018C07EF019C07FF01AC03F
:1002880080F0BBC117F0BCC118F0000E18BEFF0EFD
:10029800196E1A6E010E19EC9BF017C081F018C088
:1002A80082F019C083F01AC084F0FCEC96F07DC08F
:1002B800A7F07EC0A8F07FC0A9F080C0AAF0A7C0B0
:1002C80096F0A8C097F0A9C098F0AAC099F000ECE1
:1002D80080F096C0D4F097C0D5F098C0D6F099C0F9
:1002E800D7F0D4C025F0D5C026F0D6C027F0D7C0A7
:1002F80028F0E10E296E2E0E2A6E650E2B6E420E28
:100308002C6E1FEC91F025C0D4F026C0D5F027C084
:10031800D6F028C0D7F00101BCBF97EF01F095EFE8
:1003280001F0B4EF01F0D4C06DF0D5C06EF0D6C0C6
:100338006FF0D7C070F0000E0001716F000E726F81
:10034800340E736F430E746FA8EC8CF06DC0D4F04C
:100358006EC0D5F06FC0D6F070C0D7F0D6EF01F000
:10036800B6BFBBEF01F0B9EF01F0D6EF01F0D4C092
:100378006DF0D5C06EF0D6C06FF0D7C070F0000E2B
:100388000001716F000E726FB40E736F430E746FBD
:10039800A8EC8CF06DC0D4F06EC0D5F06FC0D6F06C
:1003A80070C0D7F0D4C017F0D5C018F0D6C019F077
:1003B800D7C01AF0000E1B6E000E1C6EE10E1D6EEB
:1003C800430E1E6ED9ECA0F0D8A0EDEF01F0EFEFD0
:1003D80001F0F8EF01F0000E0001D46F000ED56FA8
:1003E800870ED66F430ED76F000E0001CF6F19EF3F
:1003F80002F00001D051000AD8B430EF00F0010A31
:10040800D8B450EF00F0030AD8B45BEF00F0010A4B
:10041800D8B46AEF00F0070AD8B491EF00F0010AE7
:10042800D8B4A0EF00F019EF02F00E01CE95CEABD4
:1004380020EF02F022EF02F0A9EF05F0C6AB27EF9C
:1004480002F029EF02F0A9EF05F00001D105D8A4C8
:1004580030EF02F032EF02F036EF02F0020ED16F09
:1004680062EF03F0020ED119D8A43DEF02F03FEF7E
:1004780002F062EF03F0D351D8A445EF02F047EF42
:1004880002F066EF02F0D251D8A44DEF02F04FEF20
:1004980002F066EF02F08DBC54EF02F056EF02F066
:1004A80061EF02F08FA45BEF02F05DEF02F061EF05
:1004B80002F0010ED36FCFEF02F0000E0001D36FF0
:1004C800CFEF02F0D305D8A46CEF02F06EEF02F084
:1004D80088EF02F0D251D8A474EF02F076EF02F060
:1004E80088EF02F08DBC7BEF02F07DEF02F061EF48
:1004F80002F08FB482EF02F084EF02F061EF02F0B5
:10050800020ED36FCFEF02F0020ED319D8A48FEFEB
:1005180002F091EF02F0ABEF02F0D251D8A497EFBE
:1005280002F099EF02F0ABEF02F08DAC9EEF02F013
:10053800A0EF02F061EF02F08FB4A5EF02F0A7EF91
:1005480002F061EF02F0030ED36FCFEF02F0030E5B
:10055800D319D8A4B2EF02F0B4EF02F0CFEF02F053
:10056800D251D8A4BAEF02F0BCEF02F0CFEF02F0FC
:100578008DACC1EF02F0C3EF02F061EF02F08FA47F
:10058800C8EF02F0CAEF02F061EF02F00101B34BCD
:10059800B42B61EF02F0D251D8A4D5EF02F0D7EF17
:1005A80002F0F6EF02F0D351D8A4DDEF02F0DFEF4E
:1005B80002F0F6EF02F08DACE4EF02F0E6EF02F0A5
:1005C800F1EF02F08FB4EBEF02F0EDEF02F0F1EF94
:1005D80002F0010ED26F60EF03F0000E0001D26F3F
:1005E80060EF03F0D205D8A4FCEF02F0FEEF02F0B2
:1005F80018EF03F0D351D8A404EF03F006EF03F08B
:1006080018EF03F08DBC0BEF03F00DEF03F0F1EFE3
:1006180002F08FB412EF03F014EF03F0F1EF02F0E1
:10062800020ED26F60EF03F0020ED219D8A41FEFAA
:1006380003F021EF03F03BEF03F0D351D8A427EFE9
:1006480003F029EF03F03BEF03F08DBC2EEF03F02E
:1006580030EF03F0F1EF02F08FA435EF03F037EF3E
:1006680003F0F1EF02F0030ED26F60EF03F0030E18
:10067800D219D8A442EF03F044EF03F060EF03F07F
:10068800D351D8A44AEF03F04CEF03F060EF03F026
:100698008DAC51EF03F053EF03F0F1EF02F08FA4AC
:1006A80058EF03F05AEF03F0F1EF02F00101B3073E
:1006B800D8A0B407F1EF02F0000ED16F9DB467EF38
:1006C80003F069EF03F070EF03F09DA26EEF03F003
:1006D80070EF03F074EF03F09D989D88995099503E
:1006E8000E019DB57AEF03F07CEF03F083EF03F082
:1006F8009DA381EF03F083EF03F087EF03F09D994B
:100708009D8999519951010E01019B27000E9C2347
:100718009D239E23D80E176E530E186E010E196E68
:10072800000E1A6EE4C01BF0E5C01CF0E6C01DF018
:10073800E7C01EF032EC9DF00001BF511726C051F2
:100748001822171E181E174A182A17C0C7F018C0F3
:10075800C8F0D80E176E530E186E010E196E000EE3
:100768001A6EE0C01BF0E1C01CF0E2C01DF0E3C04F
:100778001EF032EC9DF00001BD511726BE51182223
:10078800171E181E174A182A17C0C5F018C0C6F039
:10079800BF51C011D8A4D3EF03F0D5EF03F0DBEFBE
:1007A80003F0000EC46F000EC36FE1EF03F0C751F2
:1007B800C325C36FC851C421C46FBD51BE11D8A48D
:1007C800E8EF03F0EAEF03F0F0EF03F0000EC26F7A
:1007D800000EC16FF6EF03F0C551C125C16FC651B8
:1007E800C221C26FC351E85DE951800A9A6FC451B2
:1007F800800A9A59D8B003EF04F005EF04F00BEF24
:1008080004F0E8C0C3F0E9C0C4F02EEF04F0E8C07B
:100818009AF0E9C09BF09A1F9B1F9A4B9B2B9A5109
:10082800C35DC451800A9C6F9B51800A9C59D8B003
:1008380020EF04F022EF04F02EEF04F0E8C09AF065
:10084800E9C09BF09A1F9B1F9A4B9B2B9AC0C3F041
:100858009BC0C4F0C151E85DE951800A9A6FC2514A
:10086800800A9A59D8B03BEF04F03DEF04F043EF0B
:1008780004F0E8C0C1F0E9C0C2F066EF04F0E8C0D7
:100888009AF0E9C09BF09A1F9B1F9A4B9B2B9A5199
:10089800C15DC251800A9C6F9B51800A9C59D8B097
:1008A80058EF04F05AEF04F066EF04F0E8C09AF04D
:1008B800E9C09BF09A1F9B1F9A4B9B2B9AC0C1F0D3
:1008C8009BC0C2F0DCC029F0DDC02AF0DEC02BF0EE
:1008D800DFC02CF0C7C017F0C8C018F0000E18BE53
:1008E800FF0E196E1A6E010E19EC9BF017C025F059
:1008F80018C026F019C027F01AC028F01FEC91F094
:1009080025C06DF026C06EF027C06FF028C070F0CB
:100918003CEC9EF06DC09AF06EC09BF06FC09CF0EE
:1009280070C09DF0D8C029F0D9C02AF0DAC02BF0E9
:10093800DBC02CF0C3C017F0C4C018F0000E18BEFE
:10094800FF0E196E1A6E010E19EC9BF017C025F0F8
:1009580018C026F019C027F01AC028F01FEC91F033
:1009680025C06DF026C06EF027C06FF028C070F06B
:100978003CEC9EF000016D519A25BB6F6E519B2196
:10098800BC6FDCC029F0DDC02AF0DEC02BF0DFC070
:100998002CF0C5C017F0C6C018F0000E18BEFF0E28
:1009A800196E1A6E010E19EC9BF017C025F018C0CD
:1009B80026F019C027F01AC028F01FEC91F025C0C6
:1009C8006DF026C06EF027C06FF028C070F03CECC8
:1009D8009EF06DC09AF06EC09BF06FC09CF070C026
:1009E8009DF0D8C029F0D9C02AF0DAC02BF0DBC0BE
:1009F8002CF0C1C017F0C2C018F0000E18BEFF0ED0
:100A0800196E1A6E010E19EC9BF017C025F018C06C
:100A180026F019C027F01AC028F01FEC91F025C065
:100A28006DF026C06EF027C06FF028C070F03CEC67
:100A38009EF000016D519A25B96F6E519B21BA6FD6
:100A4800BCBF30EF05F0BC5109E1810EBB5DD8A0F9
:100A580030EF05F032EF05F038EF05F0000EBC6F0F
:100A6800800EBB6F4AEF05F0BCAF44EF05F0810E76
:100A7800BB5DFF0EBC59D8B044EF05F046EF05F05A
:100A88004AEF05F0FF0EBC6F810EBB6FBABF56EF81
:100A980005F0BA5109E1810EB95DD8A056EF05F00D
:100AA80058EF05F05EEF05F0000EBA6F800EB96FD3
:100AB80070EF05F0BAAF6AEF05F0810EB95DFF0E71
:100AC800BA59D8B06AEF05F06CEF05F070EF05F091
:100AD800FF0EBA6F810EB96F7F0EBB25BB6F000E7C
:100AE800BC21BC6F7F0EB925B96F000EBA21BA6F51
:100AF8000E01C5AF82EF05F084EF05F0A0EF05F019
:100B08000001CE2B630ECE658CEF05F08EEF05F05D
:100B180098EF05F0000ECD6F7F0EA76E7F0EAB6EBF
:100B2800640ECE6FA7EF05F0010ECD6FBBC0A7FF17
:100B3800B9C0ABFFA7EF05F0BBC0A7FFB9C0ABFFBB
:100B4800000E0001CD6F0E01CE9BA6C0F5FFA5C01B
:100B5800F8FFA4C0F7FFA3C0F6FFA2C0F4FFA1C02E
:100B6800F3FFA0C0E0FF9FC0E8FF9EC0D8FF4990F8
:060B780010002EEFA1F0B9
:10FE7200006937AC3168212233B40F14336821A2F0
:10FE8200333863ED3EDA0F493F5E987B3FDA0FC9A4
:10FE92003F25AC7C3D4712DABD0DF5113E98CA4CA8
:10FEA200BEA9AAAA3E202020202020493243202099
:10FEB200202020202000202020202046494E494595
:10FEC20020202020202000202020204932432020F2
:10FED2004F4B20202020200020202020454E204370
:10FEE2004F555253202020200020203E4F55493CA0
:10FEF2002020204E4F4E202020002020204F554908
:10FF02002020203E4E4F4E3C2020002043414C49B1
:10FF1200422E20434F4D504153202000414354492B
:10FF2200564552205243204254203F200043414C28
:10FF320049422E20424F5553534F4C4520002052E8
:10FF42004544454D415252455A2D4D4F49200020BE
:10FF5200494E495449414C49534154494F4E20005E
:10FF62002020434F4E4E454354494F4E2042542089
:10FF7200004C4944415220434F4D504153202020D0
:10FF820032002041435449564552204C4944415283
:10FF9200203F0043414C494252455220434F4D506D
:10FFA20041533F00494E495420493243204543487A
:10FFB2004F55454500454E20415454454E54452029
:10FFC2004427554E4500414C4558414E4452452028
:10FFD200554C5249434800524F424F5420434143EB
:10FFE20048414E2042555400204955542044452052
:0EFFF20048414755454E4155002B002D00005B
:020000040001F9
:1000000096C026F197C027F198C028F199C029F130
:10001000010129BF0EEF80F011EF80F0010E12EF09
:1000200080F0000E1C6F299F800E285D4C0E295910
:10003000D8A01DEF80F01FEF80F088EF80F096C011
:1000400017F097C018F098C019F099C01AF0C0ECDA
:100050009EF017501810D8A430EF80F032EF80F0E7
:100060003CEF80F096C096F097C097F098C098F05B
:1000700099C099F0C8EF83F08F0EF66EFE0EF76E02
:10008000000EF86E0900F5CF6DF00900F5CF6EF0A7
:100090000900F5CF6FF00A00F5CF70F0000E0001F7
:1000A000716F000E726F800E736F030E746FA8EC89
:1000B0008CF06DC022F16EC023F16FC024F170C0CE
:1000C00025F101011C51D8A468EF80F06AEF80F09F
:1000D00074EF80F022C196F023C197F024C198F00C
:1000E00025C199F0C8EF83F022C117F023C118F0A1
:1000F00024C119F025C11AF073ECA2F017C096F0D4
:1001000018C097F019C098F01AC099F0C8EF83F0A2
:10011000E00E285D3E0E2959D8B091EF80F093EFA4
:1001200080F0A3EF80F0800E285D390E2959D8B0F9
:100130009CEF80F09EEF80F0A0EF80F032EF80F037
:100140002169E4EF81F096C017F097C018F098C0CD
:1001500019F099C01AF0AAECA2F017C096F018C0D6
:1001600097F019C098F01AC099F0980E0101285D17
:100170003F0E2959D8B0BFEF80F0C1EF80F066EF95
:1001800081F0300E285D3F0E2959D8B0CAEF80F0BB
:10019000CCEF80F022EF81F0000E216F000E000105
:1001A000716F000E726F800E736FBF0E746F000E52
:1001B000296E000E2A6E000E2B6E400E2C6E96C01D
:1001C00025F097C026F098C027F099C028F01FECC2
:1001D00091F025C06DF026C06EF027C06FF028C0EA
:1001E00070F0A8EC8CF06DC07DF06EC07EF06FC03A
:1001F0007FF070C080F0000E0001716F000E726F12
:10020000000E736F400E746F96C06DF097C06EF065
:1002100098C06FF099C070F0A8EC8CF06DC081F0C0
:100220006EC082F06FC083F070C084F0FCEC96F07A
:100230007DC096F07EC097F07FC098F080C099F0A6
:10024000E4EF81F0010E216F000E0001716F000ECE
:10025000726F800E736FBF0E746F96C06DF097C093
:100260006EF098C06FF099C070F0A8EC8CF06DC083
:100270007DF06EC07EF06FC07FF070C080F0000E29
:100280000001716F000E726F800E736F3F0E746FFE
:1002900096C06DF097C06EF098C06FF099C070F086
:1002A000A8EC8CF06DC081F06EC082F06FC083F05E
:1002B00070C084F0FCEC96F07DC096F07EC097F0A4
:1002C0007FC098F080C099F0E4EF81F01C0E285DAB
:1002D000400E2959D8B06FEF81F071EF81F0C7EF70
:1002E00081F0020E216F000E0001716F000E726F1F
:1002F000C00E736FBF0E746F96C06DF097C06EF036
:1003000098C06FF099C070F0A8EC8CF06DC07DF0D3
:100310006EC07EF06FC07FF070C080F0000E0001F4
:10032000716F000E726F800E736F3F0E746F000E50
:10033000296E000E2A6EC00E2B6E3F0E2C6E96C0DC
:1003400025F097C026F098C027F099C028F01FEC40
:1003500091F025C06DF026C06EF027C06FF028C068
:1003600070F0A8EC8CF06DC081F06EC082F06FC0B0
:1003700083F070C084F0FCEC96F07DC096F07EC0F7
:1003800097F07FC098F080C099F0E4EF81F0030E01
:10039000216F000E00017D6F000E7E6F800E7F6F5B
:1003A000BF0E806F96C081F097C082F098C083F036
:1003B00099C084F0FCEC96F07DC096F07EC097F07A
:1003C0007FC098F080C099F096C025F097C026F0C5
:1003D00098C027F099C028F096C029F097C02AF05D
:1003E00098C02BF099C02CF01FEC91F025C022F1A1
:1003F00026C023F127C024F128C025F122C125F011
:1004000023C126F024C127F025C128F022C129F0FC
:1004100023C12AF024C12BF025C12CF01FEC91F050
:1004200025C01DF126C01EF127C01FF128C020F1F4
:100430000D0E0001716FF50E726F110E736F3E0E8F
:10044000746F250E296EAC0E2A6E7C0E2B6E3D0E3F
:100450002C6E1DC125F01EC126F01FC127F020C142
:1004600028F01FEC91F025C06DF026C06EF027C07B
:100470006FF028C070F0A8EC8CF06DC014F16EC065
:1004800015F16FC016F170C017F1A90E0001716F60
:10049000AA0E726FAA0E736F3E0E746F1DC129F003
:1004A0001EC12AF01FC12BF020C12CF014C125F071
:1004B00015C126F016C127F017C128F01FEC91F0E6
:1004C00025C06DF026C06EF027C06FF028C070F018
:1004D000A8EC8CF06DC000F16EC001F16FC002F1AC
:1004E00070C003F100C125F001C126F002C127F060
:1004F00003C128F022C129F023C12AF024C12BF026
:1005000025C12CF01FEC91F025C00CF126C00DF197
:1005100027C00EF128C00FF1980E0001716FCA0EAE
:10052000726F4C0E736FBE0E746F470E296E120EF3
:100530002A6EDA0E2B6EBD0E2C6E1DC125F01EC16B
:1005400026F01FC127F020C128F01FEC91F025C034
:100550006DF026C06EF027C06FF028C070F0A8ECD8
:100560008CF06DC014F16EC015F16FC016F170C043
:1005700017F114C125F015C126F016C127F017C1D7
:1005800028F01DC129F01EC12AF01FC12BF020C187
:100590002CF01FEC91F025C010F126C011F127C0FE
:1005A00012F128C013F1010121BFDBEF82F0D9EF76
:1005B00082F023EF83F096C029F097C02AF098C00C
:1005C0002BF099C02CF010C171F011C172F012C162
:1005D00073F013C174F00CC16DF00DC16EF00EC15B
:1005E0006FF00FC170F0A8EC8CF06DC025F06EC0FC
:1005F00026F06FC027F070C028F01FEC91F025C0E6
:1006000018F126C019F127C01AF128C01BF196C0B5
:100610007DF097C07EF098C07FF099C080F018C13F
:1006200081F019C182F01AC183F01BC184F0CEECB5
:10063000A1F07DC096F07EC097F07FC098F080C09A
:1006400099F0C8EF83F096C029F097C02AF098C0BF
:100650002BF099C02CF010C171F011C172F012C1D1
:1006600073F013C174F00CC16DF00DC16EF00EC1CA
:100670006FF00FC170F0A8EC8CF06DC025F06EC06B
:1006800026F06FC027F070C028F01FEC91F025C055
:1006900018F126C019F127C01AF128C01BF1010179
:1006A0002151040D730EF324F66EFE0EF420F76E46
:1006B000F86A000EF8220900F5CF81F00900F5CFA5
:1006C00082F00900F5CF83F00A00F5CF84F018C15D
:1006D0007DF019C17EF01AC17FF01BC180F0CEEC15
:1006E000A1F07DC004F17EC005F17FC006F180C09D
:1006F00007F196C081F097C082F098C083F099C04E
:1007000084F004C17DF005C17EF006C17FF007C111
:1007100080F0CEECA1F07DC008F17EC009F17FC071
:100720000AF180C00BF101012151040D830EF32465
:10073000F66EFE0EF420F76EF86A000EF82209003D
:10074000F5CF7DF00900F5CF7EF00900F5CF7FF001
:100750000A00F5CF80F008C181F009C182F00AC11A
:1007600083F00BC184F0CEECA1F07DC022F17EC0FD
:1007700023F17FC024F180C025F101011C51D8A4D0
:10078000C4EF83F0C6EF83F074EF80F06AEF80F07F
:100790001200F3CF13F0F4CF14F00E01CAA9D3EF77
:1007A00083F0D5EF83F087EF84F0C2A9DAEF83F00E
:1007B000DCEF83F087EF84F00F0112A1E2EF83F00A
:1007C000E4EF83F027EF84F0CDCFE4F0CECFE5F077
:1007D0000001E66BE76B000ECE6E000ECD6E90BC96
:1007E000F4EF83F0F6EF83F0FDEF83F08EB0FBEFD4
:1007F00083F0FDEF83F00BEF84F090AC02EF84F018
:1008000004EF84F01CEF84F08EB009EF84F00BEF5E
:1008100084F01CEF84F0E71FE61FE51FE46D000E77
:10082000E523E623E723010E0101A327000EA423FD
:10083000A523A62325EF84F0FF0E0101A327FF0EB9
:10084000A423FF0EA523FF0EA6230F0112911AABBE
:100850002CEF84F02EEF84F071EF84F0C1CFE0F044
:10086000C2CFE1F00001E26BE36B000EC26E000E3E
:10087000C16E8FAA3EEF84F040EF84F047EF84F022
:100880008FA845EF84F047EF84F055EF84F08FBADE
:100890004CEF84F04EEF84F066EF84F08FA853EFB6
:1008A00084F055EF84F066EF84F0E31FE21FE11F50
:1008B000E06D000EE123E223E323010E01019F27F7
:1008C000000EA023A123A2236FEF84F0FF0E0101ED
:1008D0009F27FF0EA023FF0EA123FF0EA2230F01CF
:1008E0001A9B0ABD76EF84F078EF84F07FEF84F0F6
:1008F0001AA57DEF84F07FEF84F085EF84F0010E80
:100900000001D16F0F010A9D1A950E01CA99CEA15F
:100910008CEF84F08EEF84F0A4EF84F0C6A193EF07
:1009200084F095EF84F0A4EF84F0D90E0001E46F19
:10093000530EE56F010EE66F000EE76F0E01CE91CC
:10094000000ECE6E000ECD6ECEA9A9EF84F0ABEFF7
:1009500084F0C1EF84F0C6A9B0EF84F0B2EF84F068
:10096000C1EF84F0D90E0001E06F530EE16F010E6C
:10097000E26F000EE36F0E01CE99000EC26E000E04
:10098000C16EC5A5C6EF84F0C8EF84F060EF85F0B6
:10099000CDA5CDEF84F0CFEF84F060EF85F044502B
:1009A000D8B4D5EF84F0D7EF84F00CEF85F0455044
:1009B000D8A4DDEF84F0DFEF84F00CEF85F0F9EFE1
:1009C00084F043504324926F010E466E0CEF85F085
:1009D00042C092FE020E466E0CEF85F0C1C192FE3F
:1009E000030E466E0CEF85F09785000E466E0CEFF9
:1009F00085F04650000AD8B4E1EF84F0010AD8B47B
:100A0000E8EF84F0030AD8B4EEEF84F0010AD8B41A
:100A1000F4EF84F00CEF85F04450D8A412EF85F089
:100A200014EF85F05FEF85F04550D8B41AEF85F0EC
:100A30001CEF85F05FEF85F044EF85F043504324D1
:100A4000926F010E466E5FEF85F042C092FE020E7D
:100A5000466E5FEF85F09781030E466E5FEF85F07F
:100A60004350020DF328926F040E466E5FEF85F03F
:100A70009787050E466E5FEF85F0978592CEC1F1A0
:100A8000000E466E5FEF85F04650000AD8B41EEFA8
:100A900085F0010AD8B425EF85F0030AD8B42BEF0E
:100AA00085F0010AD8B430EF85F0070AD8B438EFE2
:100AB00085F0010AD8B43DEF85F05FEF85F0CD9564
:100AC000C5AB65EF85F067EF85F029EF86F0CDAB1C
:100AD0006CEF85F06EEF85F029EF86F09DB473EF33
:100AE00085F075EF85F024EF86F09DB27AEF85F002
:100AF0007CEF85F024EF86F0F9EF85F09928D8A4F3
:100B000084EF85F086EF85F08AEF85F0010E3E6E6A
:100B100028EF86F0000E3E6E28EF86F0FE0E991844
:100B2000D8A495EF85F097EF85F08AEF85F0020E57
:100B30003E6E28EF86F099CF37F0386A3750386E1E
:100B4000376A030E3E6E28EF86F099503724376ED1
:100B5000000E3820386E37C0B5F038C0B6F0040E3D
:100B60003E6E28EF86F099CF33F0346A3350346EFE
:100B7000336A050E3E6E28EF86F099503324336EAB
:100B8000000E3420346E33C0B1F034C0B2F0060E23
:100B90003E6E28EF86F099CF39F03A6A39503A6EB6
:100BA000396A070E3E6E28EF86F099503924396E67
:100BB000000E3A203A6E39C0B7F03AC0B8F0080ECD
:100BC0003E6E28EF86F099CF35F0366A3550366E96
:100BD000356A090E3E6E28EF86F099503524356E41
:100BE000000E3620366E35C0B3F036C0B4F08AEF52
:100BF00085F03E50000AD8B47EEF85F0010AD8B4E3
:100C00008EEF85F0030AD8B49BEF85F0010AD8B4C3
:100C1000A5EF85F0070AD8B4B3EF85F0010AD8B480
:100C2000BDEF85F0030AD8B4CBEF85F0010AD8B444
:100C3000D5EF85F00F0AD8B4E3EF85F0010AD8B4F8
:100C4000EDEF85F028EF86F09D989D88995099509A
:100C5000CD9BC5AF2EEF86F030EF86F04FEF87F0DB
:100C6000CDAF35EF86F037EF86F04FEF87F09DB5CB
:100C70003CEF86F03EEF86F049EF87F09DB343EFFF
:100C800086F045EF86F049EF87F099CE3FF036EFDA
:100C900087F0F10E3F18D8A450EF86F052EF86F09F
:100CA00058EF86F0010E3C6E010E3D6E4DEF87F061
:100CB000F20E3F18D8A45FEF86F061EF86F066EF82
:100CC00086F03C68010E3D6E4DEF87F0F30E3F1845
:100CD000D8A46DEF86F06FEF86F075EF86F0000E0A
:100CE0003B6E010E3D6E4DEF87F0F40E3F18D8A419
:100CF0007CEF86F07EEF86F084EF86F0000E3B6E90
:100D0000000E3D6E4DEF87F07EEF86F05B0E3F608C
:100D10008CEF86F08EEF86F094EF86F03FC03BF0CC
:100D2000020E3D6E4DEF87F0000E3D6E4DEF87F0E9
:100D3000B50E3F609EEF86F0A0EF86F094EF86F050
:100D40003B50D8B4A6EF86F0A8EF86F00EEF87F000
:100D5000000E0A6E5A0E096EA60E3F240F6E106A20
:100D6000FF0E102210341030116E0F30016E11C0C2
:100D700002F03BC003F0046AC4ECA2F001C007F02B
:100D800002C008F0BAEC9FF007503B5C156E0850AB
:100D9000D8A00828166A165E3C50016E026A01BE91
:100DA000020615C003F016C004F0C4ECA2F001C0A6
:100DB000BFF002C0C0F0000E0A6E5A0E096EA60EF9
:100DC0003F240F6E106AFF0E102210341030116E87
:100DD0000F30016E11C002F03BC003F0046AC4EC96
:100DE000A2F001C007F002C008F0BAEC9FF03B503F
:100DF0000724156E000E0820166E15C001F016C0EF
:100E000002F03C50036E046A03BE0406C4ECA2F078
:100E100001C0BDF002C0BEF02BEF87F05A0E0F6E7E
:100E2000000E106E3F500F5E000E105A103410303E
:100E3000116E0F300001BF6F11C0C0F0A60E3F242D
:100E40000F6E106AFF0E102210341030116E0F302A
:100E5000BD6F11C0BEF0030E3D6E4DEF87F0000E6A
:100E60003D6E000E0001CE6F4DEF87F03D50000A41
:100E7000D8B449EF86F0010AD8B486EF86F0030AA9
:100E8000D8B498EF86F0010AD8B42FEF87F04DEF71
:100E900087F09D999D89995199510E01CD9F14C05C
:100EA000F4FF13C0F3FF4992110083908698879254
:100EB00083960E01E18DE18BE189E185E183E38D8C
:100EC000E383E385E381E487E589E581E681840EB8
:100ED0000F01116F000E196F000E216F000E266FAB
:100EE000010E2E6FF60E886EC10E896E3D0E8A6E53
:100EF0004D0E8B6E090E8C6E400E106FC00E186F6B
:100F00000C0E206F000E256F000E2D6F800E606E90
:100F1000000E596F000E5A6F000E5B6F1F0E576F59
:100F2000000E586F000E0E01956F220E936F280E63
:100F3000966F000E986F9E989E9C9E8A9D9C9D88A1
:100F40009D8E9F869E94220E9B6E9E999E9D9E8B4B
:100F50009D9D9D899D8F9F879E95220E9B6FBC684E
:100F6000A50EAE6E9C0EAC6E7F0EAB6E000EAA6E22
:100F70009C0EA86E7F0EA76E000EA66E050EFD6F6E
:100F8000060EFE6F110E0F01016F120E026F1A0E88
:100F90000E018F6F1B0E906F180E8D6F0B0E0F01D1
:100FA000006F100E0E01B56F090EF86F370ECF6E81
:100FB000010ED26E900EBD6E010EBF6E260EC96E72
:100FC000010ECC6E730EC86E600EC76E370EC36E08
:100FD000010EC66EE00EB16E010EB36EFA0EB06E6B
:100FE000F28EF28EF28CF28AF28CC289BA89C29B9E
:100FF000BA9BC681BE81C693BE93C685BE95C69771
:10100000BE97C689BE89C68BBE9BCD95C585BD855D
:10101000BD8BC58BBD8FC59F0F011B851C850B8D9F
:101020000C8D138114811B8B1C8B000E1CECA0F00B
:10103000010E7CECA3F03FEC9FF01DECA3F0838647
:101040008782000E01012E6F000E8FECA2F0D90EE8
:1010500001012E6FFF0E2F6FF2ECA1F0000E0101C7
:101060002E6F010E8FECA2F0730E01012E6FFF0E9A
:101070002F6FF2ECA1F0290E0101926F960E916F85
:101080007F0EE82EFED7912FFCD7922FFAD7000EB5
:1010900001012E6F000E8FECA2F0C80E01012E6F21
:1010A000FF0E2F6FF2ECA1F0000E01012E6F010E6A
:1010B0008FECA2F0EA0E01012E6FFF0E2F6FF2EC03
:1010C000A1F0290E0101926F960E916F7F0EE82E0E
:1010D000FED7912FFCD7922FFAD7F3EC9BF0000E9E
:1010E00001012E6F000E8FECA2F0840E01012E6F15
:1010F000FF0E2F6FF2ECA1F0000E01012B6F000E1E
:101100002A6F9CECA3F0E0EF88F097ECA3F0E90ED7
:1011100001012A5DFD0E2B59D8A091EF88F093EFC5
:1011200088F099EF88F0000E2B6F000E2A6F9CEC70
:10113000A3F097ECA3F001012B5109E1020E2A5D07
:10114000D8A0A5EF88F0A7EF88F0CBEF88F0000ECD
:101150002B6F010E2A6F9CECA3F0CBEF88F0000EF2
:101160002E6F010E8FECA2F0EB0E01012E6FFE0E22
:101170002F6FF2ECA1F0E0EF88F0000E2E6F010E61
:101180008FECA2F0FC0E01012E6FFE0E2F6FF2EC21
:10119000A1F0E0EF88F097ECA3F001012B51000AD9
:1011A000D8B4D5EF88F0E0EF88F02A51000AD8B41F
:1011B000AFEF88F0010AD8B4BDEF88F0E0EF88F017
:1011C00036ECA2F00009D8B4E8EF88F0EAEF88F036
:1011D00085EF88F097ECA3F001012A512B11D8A4D8
:1011E000F4EF88F0F6EF88F0F9EF88F0010E1CECD0
:1011F000A0F0110E0101926F3C0E916FCB0EE82E04
:10120000FED7912FFCD7922FFAD7000E01012E6F37
:10121000000E8FECA2F0950E01012E6FFF0E2F6FC6
:10122000F2ECA1F0000E01012B6F000E2A6F9CEC76
:10123000A3F076EF89F097ECA3F0E90E01012A5DA7
:10124000FD0E2B59D8A027EF89F029EF89F02FEF59
:1012500089F0000E2B6F000E2A6F9CECA3F097EC28
:10126000A3F001012B5109E1020E2A5DD8A03BEF4A
:1012700089F03DEF89F061EF89F0000E2B6F010ED0
:101280002A6F9CECA3F061EF89F0000E2E6F010E27
:101290008FECA2F0EB0E01012E6FFE0E2F6FF2EC21
:1012A000A1F076EF89F0000E2E6F010E8FECA2F008
:1012B000FC0E01012E6FFE0E2F6FF2ECA1F076EF07
:1012C00089F097ECA3F001012B51000AD8B46BEF21
:1012D00089F076EF89F02A51000AD8B445EF89F0F9
:1012E000010AD8B453EF89F076EF89F036ECA2F01A
:1012F0000009D8B47EEF89F080EF89F01BEF89F008
:1013000097ECA3F001012A512B11D8A48AEF89F0A0
:101310008CEF89F09AEF89F0290E0101926F960EF9
:10132000916F7F0EE82EFED7912FFCD7922FFAD720
:1013300035EC93F0210E0101926F780E916F980EAB
:10134000E82EFED7912FFCD7922FFAD70000000E7F
:1013500001012E6F000E8FECA2F01E0E01012E6F08
:10136000FF0E2F6FF2ECA1F0000E01012B6F010EAA
:101370002A6F9CECA3F018EF8AF097ECA3F0E90E2B
:1013800001012A5DFD0E2B59D8A0C9EF89F0CBEFE2
:1013900089F0D1EF89F0000E2B6F000E2A6F9CECC4
:1013A000A3F097ECA3F001012B5109E1020E2A5D95
:1013B000D8A0DDEF89F0DFEF89F003EF8AF0000EAF
:1013C0002B6F010E2A6F9CECA3F003EF8AF0000E46
:1013D0002E6F010E8FECA2F0EB0E01012E6FFE0EB0
:1013E0002F6FF2ECA1F018EF8AF0000E2E6F010EB5
:1013F0008FECA2F0FC0E01012E6FFE0E2F6FF2ECAF
:10140000A1F018EF8AF097ECA3F001012B51000A2C
:10141000D8B40DEF8AF018EF8AF02A51000AD8B438
:10142000E7EF89F0010AD8B4F5EF89F018EF8AF0F8
:1014300036ECA2F00009D8B420EF8AF022EF8AF04F
:10144000BDEF89F097ECA3F001012A512B11D8A42C
:101450002CEF8AF02EEF8AF031EF8AF0010E4CEC7F
:10146000A3F0000E01012B6F000E2A6F9CECA3F07D
:10147000290E0101926F960E916F7F0EE82EFED716
:10148000912FFCD7922FFAD71DECA3F01200010187
:101490005451800B5D6F545154255F6F53AF53EF20
:1014A0008AF055EF8AF056EF8AF05F815F51D8B429
:1014B0005CEF8AF05EEF8AF073EF8AF05F29D8A4C0
:1014C00064EF8AF066EF8AF06EEF8AF0000E516FDB
:1014D000000E526F000E536F000E546F538F000EAC
:1014E000546F7BEF8AF0000E516F000E526F000EAA
:1014F000536F000E546F5851800B5E6F5D515E1933
:10150000D8B485EF8AF087EF8AF088EF8AF05D8D96
:10151000585158255E6F57AF90EF8AF092EF8AF0DE
:1015200093EF8AF05E815E51D8B499EF8AF09BEF19
:101530008AF0B0EF8AF05E29D8A4A1EF8AF0A3EF79
:101540008AF0ABEF8AF0000E556F000E566F000E5A
:10155000576F000E586F578F000E586FB8EF8AF014
:10156000000E556F000E566F000E576F000E586F2D
:101570005F515E5DD8B0BFEF8AF0C1EF8AF0E8EF4F
:101580008AF05DADC6EF8AF0C8EF8AF0CAEF8AF044
:10159000800E5D1B5FC160F15EC15FF160C15EF1F5
:1015A00051C160F155C151F160C155F152C160F1B5
:1015B00056C152F160C156F153C160F157C153F1A8
:1015C00060C157F154C160F158C154F160C158F184
:1015D000000E606F5F515EC159F15A6B595F000E8A
:1015E0005A5B5ABFFDEF8AF05A5109E11A0E595D54
:1015F000D8A0FDEF8AF0FFEF8AF036EF8BF0515163
:10160000521153115411D8A408EF8BF00BEF8BF04B
:10161000010E0CEF8BF0000E606F000E516F000E8C
:10162000526F000E536F000E546F5EC15FF13FEFBB
:101630008BF060A11EEF8BF020EF8BF026EF8BF08C
:10164000D89060310109606F28EF8BF0D89060333B
:1016500051A12DEF8BF02FEF8BF030EF8BF0608FDF
:10166000543554335333523351335F2B5E515F5DE6
:10167000D8A03DEF8BF03FEF8BF019EF8BF05DBD05
:1016800044EF8BF046EF8BF086EF8BF05F51D8A4E0
:101690004CEF8BF04EEF8BF058EF8BF0000E516F4C
:1016A000000E526F000E536F000E546FA7EF8CF0B8
:1016B00055515127565152235751532358515423B2
:1016C00054A165EF8BF067EF8BF013EF8CF060A106
:1016D0006CEF8BF06EEF8BF074EF8BF0D890603185
:1016E0000109606F76EF8BF0D890603351A17BEFEA
:1016F0008BF07DEF8BF07EEF8BF0608F54355433A1
:101700005333523351335F2B13EF8CF05551515DEE
:1017100056515259575153595451800A596F585183
:10172000800A5959D8B097EF8BF099EF8BF0C4EF3E
:101730008BF05151555D596F525156595A6F535153
:1017400057595B6F545158595C6FFF0E5925516FB3
:10175000FF0E5A21526FFF0E5B21536FFF0E5C216B
:10176000546F800E5D1B606D6051D8A4BAEF8BF092
:10177000BCEF8BF0CCEF8BF0010E5127000E522303
:1017800053235423CCEF8BF05551515F5651525B8C
:101790005751535B5851545B5151521153115411CD
:1017A000D8A4D5EF8BF0D7EF8BF00CEF8CF0605115
:1017B000D8A4DDEF8BF0DFEF8BF00CEF8CF0000E98
:1017C000516F000E526F000E536F000E546FA7EF53
:1017D0008CF0D890513752375337543760AFF3EF0E
:1017E0008BF0F5EF8BF0F6EF8BF0518160A1FBEF02
:1017F0008BF0FDEF8BF001EF8CF0D880603703EFBA
:101800008CF0D89060375F51D8B409EF8CF00BEFB3
:101810008CF00CEF8CF05F0753AF11EF8CF013EFEF
:101820008CF0E9EF8BF0000E5E6F60AF1AEF8CF07A
:101830001CEF8CF034EF8CF060C159F17F0E59171A
:10184000D8B425EF8CF027EF8CF02BEF8CF0010E45
:101850005E6F34EF8CF051A130EF8CF032EF8CF0F2
:1018600034EF8CF027EF8CF05E51D8B43AEF8CF067
:101870003CEF8CF067EF8CF0010E5127000E5223E5
:101880005323542354A147EF8CF049EF8CF067EFBA
:101890008CF051C159F152C15AF153C15BF154C19D
:1018A0005CF15C355C335B335A33593359C151F1C8
:1018B0005AC152F15BC153F15CC154F15F29D8B4F4
:1018C00064EF8CF066EF8CF067EF8CF05F2B5F2994
:1018D000D8B46DEF8CF06FEF8CF077EF8CF05F5138
:1018E000D8A475EF8CF077EF8CF089EF8CF0000EB8
:1018F000516F000E526F000E536F000E546F5F5108
:10190000D8A485EF8CF087EF8CF089EF8CF0000E77
:101910005D6F5FA18EEF8CF090EF8CF093EF8CF009
:10192000538F94EF8CF0539FD8905F31546F5DAF1D
:101930009CEF8CF09EEF8CF09FEF8CF0548F51C198
:1019400051F152C152F153C153F154C154F112003B
:1019500000017051800B796F705170257B6F6FAFF4
:10196000B4EF8CF0B6EF8CF0B7EF8CF07B817B514D
:10197000D8B4BDEF8CF0BFEF8CF0D4EF8CF07B29A6
:10198000D8A4C5EF8CF0C7EF8CF0CFEF8CF0000E31
:101990006D6F000E6E6F000E6F6F000E706F6F8FA9
:1019A000000E706FDCEF8CF0000E6D6F000E6E6F2E
:1019B000000E6F6F000E706F7451800B7A6F79514B
:1019C0007A19D8B4E6EF8CF0E8EF8CF0E9EF8CF000
:1019D000798D745174257A6F73AFF1EF8CF0F3EF5A
:1019E0008CF0F4EF8CF07A817A51D8B4FAEF8CF065
:1019F000FCEF8CF011EF8DF07A29D8A402EF8DF076
:101A000004EF8DF00CEF8DF0000E716F000E726F11
:101A1000000E736F000E746F738F000E746F19EFEA
:101A20008DF0000E716F000E726F000E736F000E5E
:101A3000746F7B517A5DD8B020EF8DF022EF8DF07E
:101A400049EF8DF079AD27EF8DF029EF8DF02BEF79
:101A50008DF0800E791B7BC07CF07AC07BF07CC05F
:101A60007AF06DC07CF071C06DF07CC071F06EC01A
:101A70007CF072C06EF07CC072F06FC07CF073C0FE
:101A80006FF07CC073F070C07CF074C070F07CC0EC
:101A900074F0000E7C6F7B517AC075F0766B755FC9
:101AA000000E765B76BF5EEF8DF0765109E11A0E7F
:101AB000755DD8A05EEF8DF060EF8DF097EF8DF043
:101AC0006D516E116F117011D8A469EF8DF06CEF2C
:101AD0008DF0010E6DEF8DF0000E7C6F000E6D6FBE
:101AE000000E6E6F000E6F6F000E706F7AC07BF08D
:101AF000A0EF8DF07CA17FEF8DF081EF8DF087EF6F
:101B00008DF0D8907C3101097C6F89EF8DF0D890F1
:101B10007C336DA18EEF8DF090EF8DF091EF8DF015
:101B20007C8F703570336F336E336D337B2B7A510E
:101B30007B5DD8A09EEF8DF0A0EF8DF07AEF8DF059
:101B400079BDA5EF8DF0A7EF8DF0E7EF8DF07B511C
:101B5000D8A4ADEF8DF0AFEF8DF0B9EF8DF0000EA2
:101B60006D6F000E6E6F000E6F6F000E706F08EFDE
:101B70008FF071516D2772516E2373516F23745121
:101B8000702370A1C6EF8DF0C8EF8DF074EF8EF06A
:101B90007CA1CDEF8DF0CFEF8DF0D5EF8DF0D8900B
:101BA0007C3101097C6FD7EF8DF0D8907C336DA12B
:101BB000DCEF8DF0DEEF8DF0DFEF8DF07C8F703598
:101BC00070336F336E336D337B2B74EF8EF0715146
:101BD0006D5D72516E5973516F597051800A756FF6
:101BE0007451800A7559D8B0F8EF8DF0FAEF8DF086
:101BF00025EF8EF06D51715D756F6E517259766F74
:101C00006F517359776F70517459786FFF0E752546
:101C10006D6FFF0E76216E6FFF0E77216F6FFF0ED7
:101C20007821706F800E791B7C6D7C51D8A41BEFDE
:101C30008EF01DEF8EF02DEF8EF0010E6D27000E51
:101C40006E236F2370232DEF8EF071516D5F7251F3
:101C50006E5B73516F5B7451705B6D516E116F11E0
:101C60007011D8A436EF8EF038EF8EF06DEF8EF055
:101C70007C51D8A43EEF8EF040EF8EF06DEF8EF0E9
:101C8000000E6D6F000E6E6F000E6F6F000E706FA6
:101C900008EF8FF0D8906D376E376F3770377CAFA5
:101CA00054EF8EF056EF8EF057EF8EF06D817CA1E1
:101CB0005CEF8EF05EEF8EF062EF8EF0D8807C37B6
:101CC00064EF8EF0D8907C377B51D8B46AEF8EF0F9
:101CD0006CEF8EF06DEF8EF07B076FAF72EF8EF0D2
:101CE00074EF8EF04AEF8EF0000E7A6F7CAF7BEFD0
:101CF0008EF07DEF8EF095EF8EF07CC075F07F0E4C
:101D00007517D8B486EF8EF088EF8EF08CEF8EF0DA
:101D1000010E7A6F95EF8EF06DA191EF8EF093EF3B
:101D20008EF095EF8EF088EF8EF07A51D8B49BEF5D
:101D30008EF09DEF8EF0C8EF8EF0010E6D27000E35
:101D40006E236F23702370A1A8EF8EF0AAEF8EF0A0
:101D5000C8EF8EF06DC075F06EC076F06FC077F092
:101D600070C078F07835783377337633753375C053
:101D70006DF076C06EF077C06FF078C070F07B29A0
:101D8000D8B4C5EF8EF0C7EF8EF0C8EF8EF07B2B86
:101D90007B29D8B4CEEF8EF0D0EF8EF0D8EF8EF056
:101DA0007B51D8A4D6EF8EF0D8EF8EF0EAEF8EF00C
:101DB000000E6D6F000E6E6F000E6F6F000E706F75
:101DC0007B51D8A4E6EF8EF0E8EF8EF0EAEF8EF0CC
:101DD000000E796F7BA1EFEF8EF0F1EF8EF0F4EF54
:101DE0008EF06F8FF5EF8EF06F9FD8907B31706F14
:101DF00079AFFDEF8EF0FFEF8EF000EF8FF0708F78
:101E00006DC06DF06EC06EF06FC06FF070C070F09E
:101E1000120001013B51800B446F3B513B254A6F3F
:101E20003AAF15EF8FF017EF8FF018EF8FF04A8170
:101E30004A51D8B41EEF8FF020EF8FF033EF8FF0C0
:101E40004A29D8A426EF8FF028EF8FF030EF8FF0DB
:101E5000000E386F000E396F000E3A6F000E3B6FA8
:101E60003A8F3BEF8FF0000E386F000E396F000E87
:101E70003A6F000E3B6F3F51800B441B3F513F2593
:101E8000496F3EAF46EF8FF048EF8FF049EF8FF08C
:101E900049814951D8B44FEF8FF051EF8FF064EF83
:101EA0008FF04929D8A457EF8FF059EF8FF061EFE9
:101EB0008FF0000E3C6F000E3D6F000E3E6F000E67
:101EC0003F6F3E8F6CEF8FF0000E3C6F000E3D6F4A
:101ED000000E3E6F000E3F6F4951D8B472EF8FF085
:101EE00074EF8FF07CEF8FF04A51D8A47AEF8FF027
:101EF0007CEF8FF086EF8FF0000E386F000E396F99
:101F0000000E3A6F000E3B6F1EEF91F03E5138030A
:101F1000F3CF4FF1F4CF50F14F51456F466B476B04
:101F2000486B50514B6F4C6B4D6B4E6B3D513903B1
:101F3000F3CF4FF1F4CF50F14F514527000E462318
:101F40004723482350514B27000E4C234D234E234B
:101F50003C513A03F3CF4FF1F4CF50F14F514527A5
:101F6000000E46234723482350514B27000E4C2395
:101F70004D234E2347C148F146C147F145C146F1C3
:101F8000456B3C513903F3CF4FF1F4CF50F14F5132
:101F9000452750514623000E4723000E48233D514C
:101FA0003803F3CF4FF1F4CF50F14F514527505143
:101FB0004623000E4723000E482347C148F146C17F
:101FC00047F145C146F1456B3C513803F3CF4FF122
:101FD000F4CF50F14F51452750514623000E47236F
:101FE000000E48233E513903F3CF4FF1F4CF50F1A7
:101FF0004F514B2750514C23000E4D23000E4E23C2
:102000003D513A03F3CF4FF1F4CF50F14F514B27ED
:1020100050514C23000E4D23000E4E233E513A03E7
:10202000F3CF4FF1F4CF50F14F51406F5051416F0A
:10203000426B436B42C143F141C142F140C141F1A6
:10204000406B40514B2741514C2342514D2343514A
:102050004E2345C140F146C141F147C142F148C15B
:1020600043F1190E39EF90F0D890433342334133A6
:102070004033E82E34EF90F040514B2741514C2330
:1020800042514D2343514E2347C148F146C147F1C8
:1020900045C146F1456B49514AC140F1416B40276A
:1020A000000E4123820E40254F6FFF0E4121506FDD
:1020B0006FEF90F0D8904B374C374D374E3748AFD5
:1020C00064EF90F066EF90F067EF90F04B81D8905E
:1020D00045374637473748374F07D8A050074DAFE9
:1020E00074EF90F076EF90F05AEF90F0000E496F99
:1020F00048AF7DEF90F07FEF90F0A3EF90F0FF0EF0
:102100004515406FFF0E4615416FFF0E4715426F94
:102110007F0E4815436F4051411142114311D8B40D
:1021200094EF90F096EF90F09AEF90F0010E496FD7
:10213000A3EF90F04BA19FEF90F0A1EF90F0A3EFF1
:1021400090F096EF90F04951D8B4A9EF90F0ABEF32
:1021500090F0CFEF90F0010E4B27000E4C234D2353
:102160004E234EA1B6EF90F0B8EF90F0CFEF90F085
:102170004BC140F14CC141F14DC142F14EC143F15F
:102180004335433342334133403340C14BF141C1C6
:102190004CF142C14DF143C14EF14F4B502B50BF5A
:1021A000DAEF90F0505108E14F29D8A0DAEF90F023
:1021B000DCEF90F0E6EF90F0000E4B6F000E4C6FEE
:1021C000800E4D6F7F0E4E6F14EF91F050BFF3EF06
:1021D00090F0505106E14F05D8B0F1EF90F0F3EFD9
:1021E00090F0FFEF90F0000E4B6F000E4C6F000E62
:1021F0004D6F000E4E6F000E446F14EF91F04FC103
:102200004AF1FF0E4B17FF0E4C177F0E4D17000EB5
:102210004E174AA10EEF91F010EF91F011EF91F0EF
:102220004D8FD8904A314E6F44514E134BC138F107
:102230004CC139F14DC13AF14EC13BF11200285069
:10224000800B0001606F28502824666F27AE2BEFAB
:1022500091F02DEF91F02EEF91F066816651D8B498
:1022600034EF91F036EF91F049EF91F06629D8A460
:102270003CEF91F03EEF91F046EF91F0000E256EAD
:10228000000E266E000E276E000E286E278E51EF70
:1022900091F0000E256E000E266E000E276E000EC9
:1022A000286E2C50800B601B2C502C24616F2BAEA1
:1022B0005CEF91F05EEF91F05FEF91F06181615121
:1022C000D8B465EF91F067EF91F07AEF91F0612962
:1022D000D8A46DEF91F06FEF91F077EF91F0000ED1
:1022E000296E000E2A6E000E2B6E000E2C6E2B8EA9
:1022F00082EF91F0000E296E000E2A6E000E2B6EFA
:10230000000E2C6E6151D8B488EF91F08AEF91F0F5
:1023100092EF91F06651D8A490EF91F092EF91F086
:102320009CEF91F0000E256E000E266E000E276EBB
:10233000000E286E34EF93F02B502502F3CF6BF094
:10234000F4CF6CF06B51626F636B646B656B6C51B7
:10235000676F686B696B6A6B2A502602F3CF6BF06C
:10236000F4CF6CF06B516227000E63236423652366
:102370006C516727000E682369236A2329502702BE
:10238000F3CF6BF0F4CF6CF06B516227000E632338
:10239000642365236C516727000E682369236A2331
:1023A00064C065F063C064F062C063F0626B295082
:1023B0002602F3CF6BF0F4CF6CF06B5162276C51B7
:1023C0006323000E6423000E65232A502502F3CFF9
:1023D0006BF0F4CF6CF06B5162276C516323000EED
:1023E0006423000E652364C065F063C064F062C0BE
:1023F00063F0626B29502502F3CF6BF0F4CF6CF0E1
:102400006B5162276C516323000E6423000E652319
:102410002B502602F3CF6BF0F4CF6CF06B51672793
:102420006C516823000E6923000E6A232A5027028C
:10243000F3CF6BF0F4CF6CF06B5167276C516823CE
:10244000000E6923000E6A232B502702F3CF6BF096
:10245000F4CF6CF06B512D6E6C512E6E2F6A306A7A
:102460002FC030F02EC02FF02DC02EF02D6A2D5031
:1024700067272E5068232F50692330506A2362C08B
:102480002DF063C02EF064C02FF065C030F0190E3F
:102490004FEF92F0D89030322F322E322D32E82E7C
:1024A0004AEF92F02D5067272E5068232F50692352
:1024B00030506A2364C065F063C064F062C063F0AA
:1024C000626B615166C02DF02E6A2D26000E2E2201
:1024D000820E2D246B6FFF0E2E206C6F85EF92F015
:1024E000D8906737683769376A3765AF7AEF92F007
:1024F0007CEF92F07DEF92F06781D890623763377E
:10250000643765376B07D8A06C0769AF8AEF92F024
:102510008CEF92F070EF92F0000E616F65AF93EF69
:1025200092F095EF92F0B9EF92F0FF0E62152D6EDA
:10253000FF0E63152E6EFF0E64152F6E7F0E651550
:10254000306E2D502E102F103010D8B4AAEF92F00C
:10255000ACEF92F0B0EF92F0010E616FB9EF92F034
:1025600067A1B5EF92F0B7EF92F0B9EF92F0ACEF50
:1025700092F06151D8B4BFEF92F0C1EF92F0E5EF65
:1025800092F0010E6727000E682369236A236AA16F
:10259000CCEF92F0CEEF92F0E5EF92F067C02DF025
:1025A00068C02EF069C02FF06AC030F0303430328D
:1025B0002F322E322D322DC067F02EC068F02FC082
:1025C00069F030C06AF06B4B6C2B6CBFF0EF92F08F
:1025D0006C5108E16B29D8A0F0EF92F0F2EF92F085
:1025E000FCEF92F0000E676F000E686F800E696F4F
:1025F0007F0E6A6F2AEF93F06CBF09EF93F06C5176
:1026000006E16B05D8B007EF93F009EF93F015EFF3
:1026100093F0000E676F000E686F000E696F000E7A
:102620006A6F000E606F2AEF93F06BC066F0FF0ECA
:102630006717FF0E68177F0E6917000E6A1766A1ED
:1026400024EF93F026EF93F027EF93F0698FD89063
:1026500066316A6F60516A1367C025F068C026F062
:1026600069C027F06AC028F01200000E0101906FC7
:10267000000E2E6F000E8FECA2F00D0E01012E6FDA
:10268000FF0E2F6FF2ECA1F0000E01012E6F010E74
:102690008FECA2F0DA0E01012E6FFE0E2F6FF2EC1E
:1026A000A1F0010EE9ECA2F0290E01018C6F960E4B
:1026B0008B6F7F0EE82EFED78B2FFCD78C2FFAD78F
:1026C000000E01018F6F000E906F310E2A6F010E08
:1026D0002B6F0C0EFBECA2F0BC0E01018B6F010EF8
:1026E000E82EFED78B2FFCD700D0120E01012A6FE7
:1026F0000C0E3DECA3F0090E01018B6F4E0EE82E7F
:10270000FED78B2FFCD70000C1C1BFF10101C06B08
:10271000110E2A6F0C0E3DECA3F0090E01018B6F18
:102720004E0EE82EFED78B2FFCD70000C1C1BDF1A5
:102730000101BE6BBF518C6F8B6BBD518B25BB6F85
:10274000BE518C21BC6FBBC18BF1BCC18CF1000EA2
:102750008CBFFF0E8D6F8E6FAF518B25AF6FB05159
:102760008C21B06FB1518D21B16FB2518E21B26FFA
:10277000140E2A6F0C0E3DECA3F0090E01018B6FB5
:102780004E0EE82EFED78B2FFCD70000C1C1B9F149
:102790000101BA6B130E2A6F0C0E3DECA3F0090E6B
:1027A00001018B6F4E0EE82EFED78B2FFCD7000059
:1027B000C1C1B7F10101B86BB9518C6F8B6BB751C7
:1027C0008B25B56FB8518C21B66FB5C18BF1B6C1F1
:1027D0008CF1000E8CBFFF0E8D6F8E6FAB518B2571
:1027E000AB6FAC518C21AC6FAD518D21AD6FAE5143
:1027F0008E21AE6F180E2A6F0C0E3DECA3F0090E61
:1028000001018B6F4E0EE82EFED78B2FFCD70000F8
:102810000101C651BB5DBC51800A8B6FC751800A54
:102820008B59D8B016EF94F018EF94F01CEF94F099
:10283000BBC1C6F1BCC1C7F1BB51C85DC951800A5B
:102840008B6FBC51800A8B59D8B029EF94F02BEFD5
:1028500094F02FEF94F0BBC1C8F1BCC1C9F1C251D3
:10286000B55DB651800A8B6FC351800A8B59D8B0C1
:102870003CEF94F03EEF94F042EF94F0B5C1C2F11A
:10288000B6C1C3F1B551C45DC551800A8B6FB65155
:10289000800A8B59D8B04FEF94F051EF94F055EF78
:1028A00094F0B5C1C4F1B6C1C5F1902B1F0E90656F
:1028B0005CEF94F05EEF94F065EF93F0000E6A6FBA
:1028C0001E0E696FCAEC98F0090E01018C6F1E0E86
:1028D0008B6FE40EE82EFED78B2FFCD78C2FFAD708
:1028E000000001018F2B0B0E8F6579EF94F07BEFC9
:1028F00094F063EF93F0AFC12AF1B0C12BF1B1C1F5
:102900002CF1B2C12DF1800E2E6F010E2F6F000E33
:10291000306F000E316FABEC9CF02AC1CBF02BC1B5
:10292000CCF0ABC12AF1ACC12BF1ADC12CF1AEC1E1
:102930002DF1800E01012E6F010E2F6F000E306FF2
:10294000000E316FABEC9CF02AC1C9F02BC1CAF06C
:102950000101C651C85D8B6FC751C9598C6F8BC1BE
:102960002AF18CC12BF1000E2BBFFF0E2C6F2D6FA7
:10297000010E3DEC9AF02AC138F12BC139F12CC17E
:102980003AF12DC13BF10101C251C45D8D6FC351BC
:10299000C5598E6F8DC12AF18EC12BF1000E2BBF50
:1029A000FF0E2C6F2D6F010E3DEC9AF02AC13CF109
:1029B0002BC13DF12CC13EF12DC13FF12EEC95F024
:1029C00038C1A7F139C1A8F13AC1A9F13BC1AAF1B7
:1029D0000101AABFF0EF94F0EEEF94F002EF95F052
:1029E000A7C12AF1A8C12BF1A9C12CF1AAC12DF1CF
:1029F00056ECA2F02AC1A7F12BC1A8F12CC1A9F174
:102A00002DC1AAF1000E01012A6F000E0CECA3F0FB
:102A1000000EE9ECA2F0C980000E01012E6F000E3D
:102A20008FECA2F02F0E01012E6FFF0E2F6FF2EC34
:102A3000A1F0000E01012E6F010E8FECA2F0B80E76
:102A400001012E6FFE0E2F6FF2ECA1F0000E0101BE
:102A50002B6F000E2A6F9CECA3F0120001013B517A
:102A6000800B486F3B513B254F6F3AAF3AEF95F0E3
:102A70003CEF95F03DEF95F04F814F51D8B443EFC7
:102A800095F045EF95F05AEF95F04F29D8A44BEF0C
:102A900095F04DEF95F055EF95F0000E386F000E64
:102AA000396F000E3A6F000E3B6F3A8F000E3B6F8E
:102AB00062EF95F0000E386F000E396F000E3A6F1E
:102AC000000E3B6F3F51800B481B3F513F25506F1D
:102AD0003EAF6DEF95F06FEF95F070EF95F0508190
:102AE0005051D8B476EF95F078EF95F08DEF95F0E2
:102AF0005029D8A47EEF95F080EF95F088EF95F0FF
:102B0000000E3C6F000E3D6F000E3E6F000E3F6FDB
:102B10003E8F000E3F6F95EF95F0000E3C6F000E5C
:102B20003D6F000E3E6F000E3F6F3C513D113E1158
:102B30003F11D8A49EEF95F0A0EF95F0B8EF95F077
:102B4000000E386F000E396F000E3A6F000E3B6FAB
:102B5000800E3A137F0E3B1348513B1338C138F1B6
:102B600039C139F13AC13AF13BC13BF1FBEF96F083
:102B70004F51D8A4BEEF95F0C0EF95F0CAEF95F095
:102B8000000E386F000E396F000E3A6F000E3B6F6B
:102B9000FBEF96F050514FC140F1416B405F000E8A
:102BA000415B7F0E4025496F000E41214A6F38C1BD
:102BB00044F139C145F13AC146F13BC147F1000E3C
:102BC000386F000E396F000E3A6F000E3B6F000E2B
:102BD0004B6F000E4C6F000E4D6F000E4E6F000ECF
:102BE000506F2BEF96F05051D8B4F9EF95F0FBEF02
:102BF00095F012EF96F0D89044374537463747376F
:102C0000D890383739373A373B374EAF0AEF96F01E
:102C10000CEF96F00DEF96F03881D8904B374C378B
:102C20004D374E373C51445D3D5145593E51465913
:102C30003F514759D8A01FEF96F021EF96F02AEFA9
:102C400096F04E8D3C51445F3D51455B3E51465B95
:102C50003F51475B502B190E506531EF96F033EF23
:102C600096F0F3EF95F04451451146114711D8B451
:102C70003CEF96F03EEF96F056EF96F04B8156EF14
:102C800096F0D890383739373A373B374EAF4BEF5D
:102C900096F04DEF96F04EEF96F03881D8904B3786
:102CA0004C374D374E374907D8A04A073AAF5BEF4C
:102CB00096F05DEF96F041EF96F0000E506F4EAF3C
:102CC00064EF96F066EF96F08AEF96F0FF0E4B15E4
:102CD000406FFF0E4C15416FFF0E4D15426F7F0E7A
:102CE0004E15436F4051411142114311D8B47BEF4F
:102CF00096F07DEF96F081EF96F0010E506F8AEF1F
:102D000096F038A186EF96F088EF96F08AEF96F06D
:102D10007DEF96F05051D8B490EF96F092EF96F088
:102D2000B6EF96F0010E3827000E39233A233B23E5
:102D30003BA19DEF96F09FEF96F0B6EF96F038C16D
:102D400040F139C141F13AC142F13BC143F1433550
:102D5000433342334133403340C138F141C139F14B
:102D600042C13AF143C13BF1494B4A2B4ABFC1EF43
:102D700096F04A5108E14929D8A0C1EF96F0C3EF77
:102D800096F0CEEF96F0000E4A6F4969000E386F4C
:102D9000000E396F000E3A6F000E3B6F4ABFDBEF3B
:102DA00096F04A5106E14905D8B0D9EF96F0DBEF2D
:102DB00096F0E9EF96F0000E4A6F000E496F000E94
:102DC000386F000E396F000E3A6F000E3B6F000E29
:102DD000486F49C14FF14FA1F0EF96F0F2EF96F036
:102DE000F5EF96F03A8FF6EF96F03A9FD8904F3184
:102DF0003B6FACEF95F0120000018051800B8D6F9E
:102E000080518025946F7FAF08EF97F00AEF97F01D
:102E10000BEF97F094819451D8B411EF97F013EF22
:102E200097F028EF97F09429D8A419EF97F01BEFAB
:102E300097F023EF97F0000E7D6F000E7E6F000E6F
:102E40007F6F000E806F7F8F000E806F30EF97F0E6
:102E5000000E7D6F000E7E6F000E7F6F000E806F84
:102E60008451800B8D1B84518425956F83AF3BEF7C
:102E700097F03DEF97F03EEF97F095819551D8B4DC
:102E800044EF97F046EF97F05BEF97F09529D8A4C1
:102E90004CEF97F04EEF97F056EF97F0000E816FE2
:102EA000000E826F000E836F000E846F838F000E02
:102EB000846F63EF97F0000E816F000E826F000E3B
:102EC000836F000E846F8151821183118411D8A405
:102ED0006CEF97F06EEF97F086EF97F0000E7D6F36
:102EE000000E7E6F000E7F6F000E806F800E7F13CE
:102EF0007F0E80138D5180137DC07DF07EC07EF0EB
:102F00007FC07FF080C080F0C9EF98F09451D8A4C2
:102F10008CEF97F08EEF97F098EF97F0000E7D6FA3
:102F2000000E7E6F000E7F6F000E806FC9EF98F06D
:102F3000955194C085F0866B855F000E865B7F0E91
:102F400085258E6F000E86218F6F7DC089F07EC033
:102F50008AF07FC08BF080C08CF0000E7D6F000E79
:102F60007E6F000E7F6F000E806F000E906F000E60
:102F7000916F000E926F000E936F000E956FF9EF38
:102F800097F09551D8B4C7EF97F0C9EF97F0E0EFFD
:102F900097F0D89089378A378B378C37D8907D3720
:102FA0007E377F37803793AFD8EF97F0DAEF97F01F
:102FB000DBEF97F07D81D890903791379237933738
:102FC0008151895D82518A5983518B5984518C5921
:102FD000D8A0EDEF97F0EFEF97F0F8EF97F0938D23
:102FE0008151895F82518A5B83518B5B84518C5BF9
:102FF000952B190E9565FFEF97F001EF98F0C1EF53
:1030000097F089518A118B118C11D8B40AEF98F07E
:103010000CEF98F024EF98F0908124EF98F0D8907E
:103020007D377E377F37803793AF19EF98F01BEFEE
:1030300098F01CEF98F07D81D890903791379237B7
:1030400093378E07D8A08F077FAF29EF98F02BEF2B
:1030500098F00FEF98F0000E956F93AF32EF98F065
:1030600034EF98F058EF98F0FF0E9015856FFF0E33
:103070009115866FFF0E9215876F7F0E9315886FDF
:103080008551861187118811D8B449EF98F04BEF1C
:1030900098F04FEF98F0010E956F58EF98F07DA1E2
:1030A00054EF98F056EF98F058EF98F04BEF98F0F7
:1030B0009551D8B45EEF98F060EF98F084EF98F0F7
:1030C000010E7D27000E7E237F23802380A16BEFDE
:1030D00098F06DEF98F084EF98F07DC085F07EC099
:1030E00086F07FC087F080C088F0883588338733CA
:1030F0008633853385C07DF086C07EF087C07FF043
:1031000088C080F08E4B8F2B8FBF8FEF98F08F5140
:1031100008E18E29D8A08FEF98F091EF98F09CEFFE
:1031200098F0000E8F6F8E69000E7D6F000E7E6F1F
:10313000000E7F6F000E806F8FBFA9EF98F08F5148
:1031400006E18E05D8B0A7EF98F0A9EF98F0B7EF99
:1031500098F0000E8F6F000E8E6F000E7D6F000EC8
:103160007E6F000E7F6F000E806F000E8D6F8EC021
:1031700094F094A1BEEF98F0C0EF98F0C3EF98F0F0
:103180007F8FC4EF98F07F9FD8909431806F7AEF53
:1031900097F012008EECA3F02AC173F12BC174F1E9
:1031A0002CC175F12DC176F185ECA3F02AC177F120
:1031B0002BC178F12CC179F12DC17AF1010E0101F9
:1031C000836F000E846F000E856F000E866F010EF8
:1031D000876F000E886F000E896F000E8A6F0A0ECF
:1031E0007B6FD70E7C6FD30E7D6F3F0E7E6F7BC1E2
:1031F0003CF17CC13DF17DC13EF17EC13FF169C131
:103200002AF16AC12BF1000E2BBFFF0E2C6F2D6F20
:10321000010E3DEC9AF02AC138F12BC139F12CC1D5
:103220003AF12DC13BF109EC8FF038C151F139C1B0
:1032300052F13AC153F13BC154F197C155F198C1D4
:1032400056F199C157F19AC158F147EC8AF051C132
:103250007FF152C180F153C181F154C182F17FC12C
:103260002AF180C12BF181C12CF182C12DF1B8EC82
:103270009DF02AC169F12BC16AF17FC161F180C162
:1032800062F181C163F182C164F169C12AF16AC14D
:103290002BF10101000E2BBFFF0E2C6F2D6F010EC5
:1032A0003DEC9AF02AC165F12BC166F12CC167F1A2
:1032B0002DC168F1AAECA1F061C197F162C198F14A
:1032C00063C199F164C19AF125EF9AF08EECA3F0F5
:1032D00069C16BF16AC16CF1000E01016CBFFF0E98
:1032E0006D6F6E6F2A516B5D6F6F2B516C59706FE4
:1032F0002C516D59716F2D516E59726F73516F252D
:10330000836F74517021846F75517121856F76516F
:103310007221866F85ECA3F069C16BF16AC16CF113
:10332000000E01016CBFFF0E6D6F6E6F2A516B2591
:103330006F6F2B516C21706F2C516D21716F2D515E
:103340006E21726F77516F5D876F78517059886FFA
:1033500079517159896F7A5172598A6F86BFBCEF62
:1033600099F086518511841109E1080E835DD8A07A
:10337000BCEF99F0BEEF99F0C8EF99F0070E836F9C
:10338000000E846F000E856F000E866FE2EF99F0DD
:1033900086AFD8EF99F0F90E835DFF0E8459FF0ECA
:1033A0008559FF0E8659D8B0D8EF99F0DAEF99F029
:1033B000E2EF99F0F90E836FFF0E846FFF0E856FB9
:1033C000FF0E866F8ABFF0EF99F08A51891188113C
:1033D00009E1080E875DD8A0F0EF99F0F2EF99F0BF
:1033E000FCEF99F0070E876F000E886F000E896F53
:1033F000000E8A6F16EF9AF08AAF0CEF9AF0F90E72
:10340000875DFF0E8859FF0E8959FF0E8A59D8B083
:103410000CEF9AF00EEF9AF016EF9AF0F90E876F14
:10342000FF0E886FFF0E896FFF0E8A6F87510008AD
:103430002A6F83510CECA3F0050E01016B6F260E71
:10344000E82EFED76B2FFCD70000010183518411B9
:1034500085118611D8A42FEF9AF031EF9AF066EF1C
:1034600099F08751881189118A11D8A43AEF9AF0FE
:103470003CEF9AF066EF99F012000101326F010102
:103480003251D8B446EF9AF048EF9AF06AEF9AF0CA
:103490002DBF4FEF9AF04DEF9AF06AEF9AF02AC1E4
:1034A0002EF12BC12FF12CC130F12DC131F12E1F86
:1034B0002F1F301F311F2E2B000E2F2330233123BF
:1034C0002EC134F12FC135F130C136F131C137F1A0
:1034D00072EF9AF02AC134F12BC135F12CC136F1CB
:1034E0002DC137F12A512B112C112D11D8A47BEFAE
:1034F0009AF07DEF9AF087EF9AF0000E2A6F000E97
:103500002B6F000E2C6F000E2D6F18EF9BF0960E98
:10351000336F91EF9AF0332BD890373336333533FE
:103520003433000E34152E6F000E35152F6F000E3C
:103530003615306FFE0E3715316F2E512F113011A9
:103540003111D8A4A6EF9AF0A8EF9AF08BEF9AF079
:10355000B6EF9AF0332B010E3427000E35233623B5
:103560003723D8903733363335333433000E3415A0
:103570002E6F000E35152F6F000E3615306FFF0EB3
:103580003715316F2E512F1130113111D8A4CBEFD7
:103590009AF0CDEF9AF0AAEF9AF0D5EF9AF03307B0
:1035A000D890343735373637373736BFDAEF9AF0B9
:1035B000DCEF9AF0E4EF9AF0020E3361E2EF9AF05A
:1035C000E4EF9AF0CFEF9AF033B1E9EF9AF0EBEF36
:1035D0009AF0ECEF9AF0369FD890333333C12EF146
:1035E0002F6B306B316B2EC131F1306B2F6B2E6B2B
:1035F0002E5134132F5135133051361331513713A7
:103600003251D8B406EF9BF008EF9BF010EF9BF01F
:103610002DBF0FEF9BF00DEF9BF010EF9BF0378F5E
:1036200034C12AF135C12BF136C12CF137C12DF14E
:1036300012001F6E1F50D8B420EF9BF022EF9BF0BA
:1036400044EF9BF01ABE29EF9BF027EF9BF044EF6D
:103650009BF017C01BF018C01CF019C01DF01AC059
:103660001EF01B1E1C1E1D1E1E1E1B2A000E1C22D1
:103670001D221E221BC021F01CC022F01DC023F001
:103680001EC024F04CEF9BF017C021F018C022F0B0
:1036900019C023F01AC024F01750181019101A106E
:1036A000D8A455EF9BF057EF9BF061EF9BF0000E15
:1036B000176E000E186E000E196E000E1A6EF2EFE5
:1036C0009BF0960E206E6BEF9BF0202AD890243250
:1036D000233222322132000E21141B6E000E2214DE
:1036E0001C6E000E23141D6EFE0E24141E6E1B5045
:1036F0001C101D101E10D8A480EF9BF082EF9BF0D1
:1037000065EF9BF090EF9BF0202A010E2126000E22
:10371000222223222422D890243223322232213220
:10372000000E21141B6E000E22141C6E000E2314BA
:103730001D6EFF0E24141E6E1B501C101D101E103B
:10374000D8A4A5EF9BF0A7EF9BF084EF9BF0AFEF21
:103750009BF02006D890213622362336243623BE0D
:10376000B4EF9BF0B6EF9BF0BEEF9BF0020E206033
:10377000BCEF9BF0BEEF9BF0A9EF9BF020B0C3EF36
:103780009BF0C5EF9BF0C6EF9BF0239ED8902032B4
:1037900020C01BF01C6A1D6A1E6A1BC01EF01D6A39
:1037A0001C6A1B6A1B5021121C5022121D5023122E
:1037B0001E5024121F50D8B4E0EF9BF0E2EF9BF0B4
:1037C000EAEF9BF01ABEE9EF9BF0E7EF9BF0EAEF20
:1037D0009BF0248E21C017F022C018F023C019F0EE
:1037E00024C01AF01200000E01012E6F000E8FECA3
:1037F000A2F0510E01012E6FFF0E2F6FF2ECA1F01F
:10380000000E01012E6F010E8FECA2F0A70E010138
:103810002E6FFE0E2F6FF2ECA1F0290E0101316F19
:10382000960E306F7F0EE82EFED7302FFCD7312F4B
:10383000FAD71DECA3F0060E01012A6F010E2B6FC3
:10384000690EFBECA2F0150E0101306FC60EE82EDA
:10385000FED7302FFCD700000F0E01012A6F020E99
:103860002B6F690EFBECA2F0150E0101306FC60E36
:10387000E82EFED7302FFCD70000010E01012A6F81
:103880000C0E3DECA3F0150E0101306FC60EE82EB4
:10389000FED7302FFCD70000090E0101C119D8A4B2
:1038A00054EF9CF056EF9CF07DEF9CF0000E2E6FD5
:1038B000000E8FECA2F0510E01012E6FFF0E2F6F44
:1038C000F2ECA1F0000E01012E6F010E8FECA2F0C0
:1038D000C90E01012E6FFE0E2F6FF2ECA1F0290E22
:1038E0000101316F960E306F7F0EE82EFED7302F1C
:1038F000FCD7312FFAD799EF9CF0000E2E6F000EF7
:103900008FECA2F0A60E01012E6FFF0E2F6FF2ECCE
:10391000A1F0000E01012E6F010E8FECA2F0400EFF
:1039200001012E6FFF0E2F6FF2ECA1F0000096EF59
:103930009CF00F0E01012A6F000E2B6F0C0EFBEC9A
:10394000A2F0150E0101306FC60EE82EFED7302F03
:10395000FCD700001200000E0101336F31BFB5EF3C
:103960009CF0B3EF9CF0BFEF9CF0311F301F2F1F76
:103970002E6D000E2F2330233123010E336F2DBF08
:10398000C6EF9CF0C4EF9CF0D0EF9CF02D1F2C1FD5
:103990002B1F2A6D000E2B232C232D23010E331BEE
:1039A000000E346F000E356F000E366F000E376F4D
:1039B0002E512F1130113111D8B4E1EF9CF0E3EF0B
:1039C0009CF019EF9DF0010E326FEDEF9CF0D89056
:1039D0002E372F3730373137322B31AFF2EF9CF0A3
:1039E000F4EF9CF0E7EF9CF0D8903437353736375A
:1039F00037372E512A5D2F512B5930512C593151C7
:103A00002D59D8A006EF9DF008EF9DF011EF9DF025
:103A10002E512A5F2F512B5B30512C5B31512D5B86
:103A20003481D890313330332F332E33322FF4EFAB
:103A30009CF03351D8B41FEF9DF021EF9DF029EF9A
:103A40009DF0371F361F351F346D000E352336238A
:103A5000372334C12AF135C12BF136C12CF137C1DE
:103A60002DF11200000E206E1EBE3BEF9DF039EFCF
:103A70009DF045EF9DF01E1E1D1E1C1E1B6C000EB2
:103A80001C221D221E22010E206E1ABE4CEF9DF03C
:103A90004AEF9DF056EF9DF01A1E191E181E176C66
:103AA000000E182219221A22010E201A000E216E71
:103AB000000E226E000E236E000E246E1B501C1092
:103AC0001D101E10D8B467EF9DF069EF9DF09FEFB9
:103AD0009DF0010E1F6E73EF9DF0D8901B361C36C3
:103AE0001D361E361F2A1EAE78EF9DF07AEF9DF030
:103AF0006DEF9DF0D89021362236233624361B50A8
:103B0000175C1C5018581D5019581E501A58D8A030
:103B10008CEF9DF08EEF9DF097EF9DF01B50175EA0
:103B20001C50185A1D50195A1E501A5A2180D890EC
:103B30001E321D321C321B321F2E7AEF9DF0205098
:103B4000D8B4A5EF9DF0A7EF9DF0AFEF9DF0241E38
:103B5000231E221E216C000E22222322242221C099
:103B600017F022C018F023C019F024C01AF0120078
:103B700001012C352D35336F3351D8A4C2EF9DF0A0
:103B8000C4EF9DF0CEEF9DF0000E2A6F000E2B6F5C
:103B9000000E2C6F000E2D6F3BEF9EF02AC12EF110
:103BA0002BC12FF12CC130F12DC131F1200EDEEFF0
:103BB0009DF0D890313330332F332E33E82ED9EFA8
:103BC0009DF02E51326F2C8FFF0E2A17FF0E2B17F0
:103BD000FF0E2C17000E2D17960E335F33BFF5EF37
:103BE0009DF0F3EF9DF00BEF9EF03351800A970F9D
:103BF000D8B0FDEF9DF0FFEF9DF001EF9EF0C4EF18
:103C00009DF0D8902D332C332B332A33333F01EFE3
:103C10009EF023EF9EF01F0E336511EF9EF013EF21
:103C20009EF01BEF9EF0C4EF9DF0D8902A372B3703
:103C30002C372D3733073351D8A421EF9EF023EFD3
:103C40009EF015EF9EF03251D8B429EF9EF02BEF85
:103C50009EF033EF9EF02D1F2C1F2B1F2A6D000EA0
:103C60002B232C232D232AC12AF12BC12BF12CC16C
:103C70002CF12DC12DF1120000016F357035326E1F
:103C80003250D8A446EF9EF048EF9EF052EF9EF0DF
:103C9000000E6D6F000E6E6F000E6F6F000E706F76
:103CA000BFEF9EF06DC071F06EC072F06FC073F028
:103CB00070C074F0200E62EF9EF0D89074337333AE
:103CC00072337133E82E5DEF9EF07151316E6F8F5C
:103CD000FF0E6D17FF0E6E17FF0E6F17000E701799
:103CE000960E325E32BE79EF9EF077EF9EF08FEF48
:103CF0009EF03250800A970FD8B081EF9EF083EF8C
:103D00009EF085EF9EF048EF9EF0D89070336F33B1
:103D10006E336D33323E85EF9EF0A7EF9EF01F0E9F
:103D2000326495EF9EF097EF9EF09FEF9EF048EF84
:103D30009EF0D8906D376E376F377037320632503D
:103D4000D8A4A5EF9EF0A7EF9EF099EF9EF031501A
:103D5000D8B4ADEF9EF0AFEF9EF0B7EF9EF0701FBE
:103D60006F1F6E1F6D6D000E6E236F2370236DC06D
:103D70006DF06EC06EF06FC06FF070C070F012002A
:103D8000ABC021F0ACC022F0ADC023F0AEC024F037
:103D900017C021F018C022F019C023F01AC024F077
:103DA00021C01BF022C01CF023C01DF024C01EF057
:103DB000180EE0EF9EF0D8901E321D321C321B32DE
:103DC000E82EDBEF9EF01B501F6E206A1F50201064
:103DD000D8A4EDEF9EF0EFEF9EF00FEF9FF0D8909C
:103DE00021341B6E22341C6E23341D6E24341E6E4F
:103DF0001B501C101D101E10D8A401EF9FF003EFE4
:103E00009FF009EF9FF0000E186E020E176E3EEF46
:103E10009FF0000E186E030E176E3EEF9FF01F28E6
:103E20002010D8A416EF9FF018EF9FF03AEF9FF004
:103E300021C01BF022C01CF023C01DF024C01EF0C6
:103E4000090ED8901B361C361D361E36E82E21EF83
:103E50009FF01B501C101D101E10D8B432EF9FF0A5
:103E600035EF9FF0010E36EF9FF0000E176E186AC7
:103E70003EEF9FF0000E186E040E176E1200849A2B
:103E80008498040E0101306F400E2F6F260EE82E2D
:103E9000FED72F2FFCD7302FFAD70000030E7DEC72
:103EA000A0F0680E01012F6FE40EE82EFED72F2F31
:103EB000FCD70000030E7DECA0F0680E01012F6F0F
:103EC000E40EE82EFED72F2FFCD70000030E7DEC6A
:103ED000A0F0680E01012F6FE40EE82EFED72F2F01
:103EE000FCD70000020E7DECA0F0680E01012F6FE0
:103EF000E40EE82EFED72F2FFCD70000000E0101A4
:103F00002C6F280E15ECA2F0680E01012F6FE40E45
:103F1000E82EFED72F2FFCD70000000E01012C6FDA
:103F20000C0E15ECA2F0A70E01012F6F3A0EE82E31
:103F3000FED72F2FFCD700001DECA3F0680E010167
:103F40002F6FE40EE82EFED72F2FFCD70000000EB7
:103F500001012C6F060E15ECA2F0680E01012F6F07
:103F6000E40EE82EFED72F2FFCD700001DECA3F0A7
:103F7000848A1200000E0C6E0ABEC3EF9FF0C1EFE0
:103F80009FF0C9EF9FF0096C0A1ED8B00A2A010EF3
:103F90000C6E08BED0EF9FF0CEEF9FF0D6EF9FF0F3
:103FA000076C081ED8B0082A010E0C1A000E0E6EFF
:103FB000000E0D6E09500A10D8B4E1EF9FF0E3EF48
:103FC0009FF00BEFA0F0010E0B6EEBEF9FF0D8907F
:103FD00009360A360B2A0AAEF0EF9FF0F2EF9FF097
:103FE000E7EF9FF0D8900D360E360950075C0A5067
:103FF0000858D8A0FEEF9FF000EFA0F005EFA0F06A
:104000000950075E0A50085A0D80D8900A320932CA
:104010000B2EF2EF9FF00C50D8B411EFA0F013EF7D
:10402000A0F017EFA0F00D6C0E1ED8B00E2A0DC038
:1040300007F00EC008F0120001012A6F9A6822EF03
:10404000A0F000009EA227EFA0F029EFA0F021EF42
:10405000A0F0350EE82EFED70000FD0E9A6E32EF6E
:10406000A0F000009EA237EFA0F039EFA0F031EFF2
:10407000A0F0350EE82EFED700002AC19AFF42EFCD
:10408000A0F000009EA247EFA0F049EFA0F041EFA2
:10409000A0F0350EE82EFED700009A6851EFA0F090
:1040A00000009EA256EFA0F058EFA0F050EFA0F055
:1040B000350EE82EFED70000FD0E9A6E61EFA0F0DF
:1040C00000009EA266EFA0F068EFA0F060EFA0F005
:1040D000350EE82EFED700002AC19AFF71EFA0F03E
:1040E00000009EA276EFA0F078EFA0F070EFA0F0B5
:1040F000350EE82EFED70000120001012B6F0101E2
:104100002BB185EFA0F089EFA0F02A6B2A2B8BEF63
:10411000A0F001012A6B2A472A472A4784502A190E
:10412000F70B2A19846E2BB398EFA0F09CEFA0F048
:104130002A6B2A2B9EEFA0F001012A6B2A472A47FF
:1041400084502A19FB0B2A19846E2BB5AAEFA0F014
:10415000AEEFA0F02A6B2A2BB0EFA0F001012A6B82
:104160002A4784502A19FD0B2A19846E2BB7BBEFFE
:10417000A0F0BFEFA0F02A6B2A2BC1EFA0F0010145
:104180002A6B2A332A3386502A197F0B2A19866E06
:104190008488E40E00D000D0E82EFCD700D000D0F8
:1041A0008498E40E00D000D0E82EFCD700D000D0D8
:1041B0001200000E17141F6E000E1814206E800ED1
:1041C0001914216E7F0E1A14226E1F502010211018
:1041D0002210D8A4EEEFA0F0F0EFA0F0F8EFA0F0DE
:1041E000000E176E000E186E000E196E000E1A6E7D
:1041F000000E1B141F6E000E1C14206E800E1D146A
:10420000216E7F0E1E14226E1F50201021102210CE
:10421000D8A40DEFA1F00FEFA1F017EFA1F0000E61
:104220001B6E000E1C6E000E1D6E000E1E6E1B50CF
:1042300017180FE11C5018180CE11D50191809E14E
:104240001E501A18D8B427EFA1F029EFA1F02CEFD7
:10425000A1F0D8902DEFA1F0D8801200420EF66E9A
:10426000470EF76E010EF86E01EEC2F010EE08F088
:104270000900F5CFEEFFE550E150FAE1E60EF66EEB
:10428000460EF76E010EF86E00EED8F010EE12F04A
:104290000900F5CFEEFFE550E150FAE14A0EF66E67
:1042A000470EF76E010EF86E0900F5CF47F00900D2
:1042B000F5CF48F001EE93F02F0EEE6AE806FDE12F
:1042C00000EEABF02D0EEE6AE806FDE100EE33F0F5
:1042D000140EEE6AE806FDE1499049920001D7EF1D
:1042E000A2F09A6875EFA1F000009EA27AEFA1F00B
:1042F0007CEFA1F074EFA1F0350EE82EFED70000A0
:10430000FC0E9A6E85EFA1F000009EA28AEFA1F04C
:104310008CEFA1F084EFA1F0350EE82EFED700005F
:10432000010E9A6E95EFA1F000009EA29AEFA1F007
:104330009CEFA1F094EFA1F0350EE82EFED700001F
:10434000F29EF29EF29C000EE9ECA2F00000A6EFB5
:10435000A1F01200000E0101651B000E661B000E8D
:10436000671B800E681B61C151F162C152F163C1CC
:1043700053F164C154F165C155F166C156F167C18D
:1043800057F168C158F147EC8AF051C161F152C14F
:1043900062F153C163F154C164F11200000E0001D7
:1043A000811B000E821B000E831B800E841B7DC0B0
:1043B0006DF07EC06EF07FC06FF080C070F081C085
:1043C00071F082C072F083C073F084C074F0A8EC06
:1043D0008CF06DC07DF06EC07EF06FC07FF070C05D
:1043E00080F0120004EFA2F0010E01012C6F2EC12B
:1043F000F6FF2FC1F7FF000EF86E0800F55015EC20
:10440000A2F001012E4B2F2B2EC1F6FF2FC1F7FF7B
:10441000000EF86E0800F5500009D8A412EFA2F0C3
:1044200014EFA2F0F4EFA1F0120001012D6F0101D1
:104430002C51D8A41EEFA2F020EFA2F023EFA2F09F
:10444000849A24EFA2F0848AE40E00D000D0E82EF3
:10445000FCD700D000D001012D390F0B7DECA0F06E
:1044600001012D510F0B7DECA0F01200D00E0101C7
:104470002A6FC90EE82EFED72A2FFCD700D0000ED7
:104480008FB6010E486E4750485CD8B04AEFA2F094
:104490004CEFA2F050EFA2F0010E416E52EFA2F0ED
:1044A000000E416E48C047F04150120001012A51F0
:1044B0002B112C112D11D8B460EFA2F062EFA2F0F5
:1044C0006AEFA2F0000E2A1B000E2B1B000E2C1B05
:1044D000800E2D1B2AC12AF12BC12BF12CC12CF1EE
:1044E0002DC12DF112001750181019101A10D8B440
:1044F0007CEFA2F07EEFA2F086EFA2F0000E171A7A
:10450000000E181A000E191A800E1A1A17C017F08A
:1045100018C018F019C019F01AC01AF012000101E1
:104520002F6F849A01012F51D8A499EFA2F09BEF2D
:10453000A2F0A3EFA2F0000E2C6F2E51800F15EC0D
:10454000A2F0A9EFA2F0000E2C6F2E51C00F15ECB7
:10455000A2F0120093C11BF094C11CF095C11DF094
:1045600096C11EF017C01BF018C01CF019C01DF03A
:104570001AC01EF01E9E1BC017F01CC018F01DC0F4
:1045800019F01EC01AF0120001500302F3CF05F01B
:10459000F4CF06F001500402F35006260250030245
:1045A000F350062605C001F006C002F0120055ECDB
:1045B00087F069ECA3F00009D8B4E1EFA2F0E3EFD3
:1045C000A2F0D9EFA2F071ECA1F0D9EFA2F0BDEF0B
:1045D00005F001012A6F000E0001C46F000EC36FC9
:1045E000000EC26F000EC16F01012AB102D0869881
:1045F00001D08688120001012C6F000E466E000E5D
:10460000456E010E446E2CC143F02AC142F02BC10D
:10461000C1F10E019781120001012B6F01012B5195
:104620000001BF6FC06BBFBFC00701012A5100016D
:10463000BD6FBE6BBDBFBE071200000E01012C6F27
:10464000010E15ECA2F02A0E01012E6F8D0EE82E40
:10465000FED72E2FFCD700D01200196E000E466E2A
:10466000000E456E010E446E19C043F017C042F0B3
:1046700018C0C1F10E019781120001012B6F000ECD
:10468000466E010E456E000E446E2BC143F02AC1EA
:1046900042F00E019781120001012A6F01012AB137
:1046A00054EFA3F058EFA3F00E01C58F5AEFA3F01B
:1046B0000E01C59F1200186E000E466E010E456E6B
:1046C000000E446E18C043F017C042F00E019781EF
:1046D00012008EBE6EEFA3F071EFA3F0010E72EF29
:1046E000A3F0000E1200CDCC4C3E0000C040D953C8
:1046F0000100D95301002C0101012A6F01012AB1E7
:1047000002D0869A01D0868A12009FC12AF1A0C1E8
:104710002BF1A1C12CF1A2C12DF11200A3C12AF1EC
:10472000A4C12BF1A5C12CF1A6C12DF11200B3C17A
:104730002AF1B4C12BF112002AC1B3F12BC1B4F19B
:0C4740001200007D0083007D0083010159
:020000040030CA
:0C0000008CD73EE79FFFFFCFFFFFFFFF04
:00000001FF
