:0400000081EF00F09C
:060008004D8292EF07F0AB
:100018004D80D8CF6EF0E8CF6FF0E0CF70F00E01D2
:10002800C5AF19EF00F01BEF00F079EF00F0CDAF8E
:1000380020EF00F022EF00F079EF00F099CE71F098
:1000480071C09AFE090E236E010E8AEC1DF0010E96
:10005800216E71C019F01A6A000E1C6E640E1B6EB8
:1000680014EC1BF01950300F52EC1DF00A0E236EE1
:10007800010E8AEC1DF0010E216E000E166E640E44
:10008800156E71C013F0146A34EC1CF013C019F02B
:1000980014C01AF0000E1C6E0A0E1B6E14EC1BF036
:1000A8001950300F52EC1DF00B0E236E010E8AEC26
:1000B8001DF0010E216E71C013F0146A000E166E49
:1000C8000A0E156E34EC1CF01350300F52EC1DF074
:1000D800320E00016A6F000E6B6F000E6C6F000E1F
:1000E8006D6FABEC1AF00E01CD9F70C0E0FF6FC0D2
:0E00F800E8FF6EC0D8FF4D901000E2EF1CF044
:100F000000204C4944415220434F4D5041535320FF
:100F10002000524F424F542032412049555420481E
:100F200041470000F3CF11F0F4CF12F00E01CAA92F
:100F30009CEF07F09EEF07F072EF09F0C2A9A3EF54
:100F400007F0A5EF07F072EF09F00F010ABDABEF54
:100F500007F0ADEF07F0B4EF07F01AA5B2EF07F016
:100F6000B4EF07F0DBEF08F0150E0F6EC60EE82E9B
:100F7000FED70F2EFCD700D04450D8A4C2EF07F004
:100F8000C4EF07F0E2EF07F04350D8A4CAEF07F030
:100F9000CCEF07F0E2EF07F08DBCD1EF07F0D3EF15
:100FA00007F0DEEF07F08FA4D8EF07F0DAEF07F0D5
:100FB000DEEF07F0010E446E4AEF08F0000E446EBB
:100FC0004AEF08F04404D8A4E8EF07F0EAEF07F08E
:100FD00004EF08F04350D8A4F0EF07F0F2EF07F069
:100FE00004EF08F08DBCF7EF07F0F9EF07F0DEEF44
:100FF00007F08FB4FEEF07F000EF08F0DEEF07F028
:10100000020E446E4AEF08F0020E4418D8A40BEF0B
:1010100008F00DEF08F027EF08F04350D8A413EFC5
:1010200008F015EF08F027EF08F08DAC1AEF08F084
:101030001CEF08F0DEEF07F08FB421EF08F023EF8C
:1010400008F0DEEF07F0030E446E4AEF08F0030EDF
:101050004418D8A42EEF08F030EF08F04AEF08F05B
:101060004350D8A436EF08F038EF08F04AEF08F004
:101070008DAC3DEF08F03FEF08F0DEEF07F08FA4F6
:1010800044EF08F046EF08F0DEEF07F00001B82B60
:10109000DEEF07F04350D8A450EF08F052EF08F00D
:1010A00070EF08F04450D8A458EF08F05AEF08F059
:1010B00070EF08F08DAC5FEF08F061EF08F06CEFB7
:1010C00008F08FB466EF08F068EF08F06CEF08F0F6
:1010D000010E436ED8EF08F0000E436ED8EF08F013
:1010E0004304D8A476EF08F078EF08F092EF08F008
:1010F0004450D8A47EEF08F080EF08F092EF08F09B
:101100008DBC85EF08F087EF08F06CEF08F08FB426
:101110008CEF08F08EEF08F06CEF08F0020E436ED3
:10112000D8EF08F0020E4318D8A499EF08F09BEF0F
:1011300008F0B5EF08F04450D8A4A1EF08F0A3EFF1
:1011400008F0B5EF08F08DBCA8EF08F0AAEF08F0A2
:101150006CEF08F08FA4AFEF08F0B1EF08F06CEF80
:1011600008F0030E436ED8EF08F0030E4318D8A41E
:10117000BCEF08F0BEEF08F0D8EF08F04450D8A458
:10118000C4EF08F0C6EF08F0D8EF08F08DACCBEF55
:1011900008F0CDEF08F06CEF08F08FA4D2EF08F064
:1011A000D4EF08F06CEF08F00001B8076CEF08F01E
:1011B0000F010A9D1A951AA7E0EF08F0E2EF08F078
:1011C00000EF09F08FB6E7EF08F0E9EF08F0FEEF67
:1011D00008F0D00E0F6ECA0EE82EFED70F2EFCD7E9
:1011E0008FA6F5EF08F0F7EF08F0F0EF08F0D00E5B
:1011F0000F6ECA0EE82EFED70F2EFCD70F011A97DE
:1012000012A105EF09F007EF09F038EF09F0CDCF93
:10121000BEF0CECFBFF00001C06BC16B000ECE6E32
:10122000000ECD6E90AC17EF09F019EF09F020EF2A
:1012300009F08EB01EEF09F020EF09F02EEF09F053
:1012400090BC25EF09F027EF09F036EF09F08EB0DA
:101250002CEF09F02EEF09F036EF09F0C11FC01F87
:10126000BF1FBE6D000EBF23C023C1230F0112910B
:101270001AAB3DEF09F03FEF09F070EF09F0C1CF75
:10128000BAF0C2CFBBF00001BC6BBD6B000EC26EEA
:10129000000EC16E8FAA4FEF09F051EF09F058EF21
:1012A00009F08FA856EF09F058EF09F066EF09F042
:1012B0008FBA5DEF09F05FEF09F06EEF09F08FA8CC
:1012C00064EF09F066EF09F06EEF09F0BD1FBC1F77
:1012D000BB1FBA6D000EBB23BC23BD230F011A9B9D
:1012E0000E01CA99CEA177EF09F079EF09F08FEFDF
:1012F00009F0C6A17EEF09F080EF09F08FEF09F049
:10130000D90E0001BE6F530EBF6F010EC06F000EED
:10131000C16F0E01CE91000ECE6E000ECD6ECEA925
:1013200094EF09F096EF09F0ACEF09F0C6A99BEF36
:1013300009F09DEF09F0ACEF09F0D90E0001BA6F8A
:10134000530EBB6F010EBC6F000EBD6F0E01CE9928
:10135000000EC26E000EC16ECEABB1EF09F0B3EF5E
:1013600009F0F6EF0AF0C6ABB8EF09F0BAEF09F0F2
:10137000F6EF0AF0D80E016E530E026E010E036EE8
:10138000000E046EBEC005F0BFC006F0C0C007F07E
:10139000C1C008F050EC12F001500001B25DB66F10
:1013A0000250B359B76FB6514124416EB751422034
:1013B000426E42BEE2EF09F04204D8A0E2EF09F02B
:1013C000E4EF09F0E7EF09F0000E426E416842AE2B
:1013D000F2EF09F04104FF0E4258D8B0F2EF09F0E5
:1013E000F4EF09F0F8EF09F0FF0E426E010E416EC6
:1013F0004CC001F0026AB6C003F0B7C004F0A3EC21
:101400001DF001C007F002C008F0000E0A6E0A0EBF
:10141000096E76EC1BF007C00FF008C010F04BC04F
:1014200001F0026A41C003F042C004F0A3EC1DF0D9
:1014300001C007F002C008F0000E0A6E640E096ECB
:1014400076EC1BF007500F243D6E085010203E6EC6
:101450003EBE34EF0AF03E5009E1810E3D5CD8A05B
:1014600034EF0AF036EF0AF03AEF0AF0000E3E6E63
:10147000800E3D6E3EAE46EF0AF0810E3D5CFF0EE3
:101480003E58D8B046EF0AF048EF0AF04CEF0AF0A9
:10149000FF0E3E6E810E3D6E7F0E3D243D6E000EB2
:1014A0003E203E6E3DC0A7FFD80E016E530E026E69
:1014B000010E036E000E046EBAC005F0BBC006F04C
:1014C000BCC007F0BDC008F050EC12F00001B051F4
:1014D0000126B1510222011E021E014A022A01C048
:1014E000B4F002C0B5F0B4513F243F6EB551402076
:1014F000406E40BE82EF0AF04004D8A082EF0AF0AE
:1015000084EF0AF087EF0AF0000E406E3F6840AEAD
:1015100092EF0AF03F04FF0E4058D8B092EF0AF065
:1015200094EF0AF098EF0AF0FF0E406E010E3F6E46
:101530004CC001F0026AB4C003F0B5C004F0A3ECE3
:101540001DF001C007F002C008F0000E0A6E0A0E7E
:10155000096E76EC1BF007C00FF008C010F04BC00E
:1015600001F0026A3FC003F040C004F0A3EC1DF09C
:1015700001C007F002C008F0000E0A6E640E096E8A
:1015800076EC1BF007500F243B6E085010203C6E89
:101590003CBED4EF0AF03C5009E1810E3B5CD8A080
:1015A000D4EF0AF0D6EF0AF0DAEF0AF0000E3C6E44
:1015B000800E3B6E3CAEE6EF0AF0810E3B5CFF0E08
:1015C0003C58D8B0E6EF0AF0E8EF0AF0ECEF0AF08A
:1015D000FF0E3C6E810E3B6E7F0E3B243B6E000E79
:1015E0003C203C6E3BC0ABFF0E01CE9BC5A1FBEF88
:1015F0000AF0FDEF0AF095EF0BF0CDA102EF0BF032
:1016000004EF0BF095EF0BF04850D8B40AEF0BF055
:101610000CEF0BF041EF0BF04950D8A412EF0BF098
:1016200014EF0BF041EF0BF02EEF0BF04750472477
:10163000926E010E4A6E41EF0BF046C092FF020E11
:101640004A6E41EF0BF045C092FF030E4A6E41EF28
:101650000BF09784000E4A6E41EF0BF04A50000ADF
:10166000D8B416EF0BF0010AD8B41DEF0BF0030A43
:10167000D8B423EF0BF0010AD8B429EF0BF041EFF7
:101680000BF04850D8A447EF0BF049EF0BF094EF64
:101690000BF04950D8B44FEF0BF051EF0BF094EF33
:1016A0000BF079EF0BF047504724926E010E4A6E13
:1016B00094EF0BF046C092FF020E4A6E94EF0BF0CF
:1016C0009780030E4A6E94EF0BF04750020DF328FB
:1016D000926E040E4A6E94EF0BF09786050E4A6EDA
:1016E00094EF0BF0978492CF45F0000E4A6E94EF82
:1016F0000BF04A50000AD8B453EF0BF0010AD8B4EB
:101700005AEF0BF0030AD8B460EF0BF0010AD8B41B
:1017100065EF0BF0070AD8B46DEF0BF0010AD8B4EF
:1017200072EF0BF094EF0BF0CD9112C0F4FF11C0EB
:10173000F3FF4D92110000018351800B906F835194
:101740008325976F82AFA7EF0BF0A9EF0BF0AAEFFD
:101750000BF097819751D8B4B0EF0BF0B2EF0BF0CC
:10176000C7EF0BF09729D8A4B8EF0BF0BAEF0BF046
:10177000C2EF0BF0000E806F000E816F000E826FC3
:10178000000E836F828F000E836FCFEF0BF0000E81
:10179000806F000E816F000E826F000E836F875185
:1017A000800B901B87518725986F86AFDAEF0BF07F
:1017B000DCEF0BF0DDEF0BF098819851D8B4E3EF3C
:1017C0000BF0E5EF0BF0FAEF0BF09829D8A4EBEF54
:1017D0000BF0EDEF0BF0F5EF0BF0000E846F000E49
:1017E000856F000E866F000E876F868F000E876FE5
:1017F00002EF0CF0000E846F000E856F000E866FF6
:10180000000E876F8451851186118711D8A40BEFC4
:101810000CF00DEF0CF025EF0CF0000E806F000EB9
:10182000816F000E826F000E836F800E82137F0E19
:1018300083139051831380C080F081C081F082C0F7
:1018400082F083C083F068EF0DF09751D8A42BEF9E
:101850000CF02DEF0CF037EF0CF0000E806F000E47
:10186000816F000E826F000E836F68EF0DF098514C
:1018700097C088F0896B885F000E895B7F0E882592
:10188000916F000E8921926F80C08CF081C08DF025
:1018900082C08EF083C08FF0000E806F000E816FCB
:1018A000000E826F000E836F000E936F000E946F18
:1018B000000E956F000E966F000E986F98EF0CF06B
:1018C0009851D8B466EF0CF068EF0CF07FEF0CF095
:1018D000D8908C378D378E378F37D89080378137B7
:1018E0008237833796AF77EF0CF079EF0CF07AEF11
:1018F0000CF08081D8909337943795379637845180
:101900008C5D85518D5986518E5987518F59D8A03C
:101910008CEF0CF08EEF0CF097EF0CF0968D84515D
:101920008C5F85518D5B86518E5B87518F5B982BC9
:10193000190E98659EEF0CF0A0EF0CF060EF0CF024
:101940008C518D118E118F11D8B4A9EF0CF0ABEF23
:101950000CF0C3EF0CF09381C3EF0CF0D8908037FC
:1019600081378237833796AFB8EF0CF0BAEF0CF0BF
:10197000BBEF0CF08081D89093379437953796372A
:101980009107D8A0920782AFC8EF0CF0CAEF0CF015
:10199000AEEF0CF0000E986F96AFD1EF0CF0D3EFD6
:1019A0000CF0F7EF0CF0FF0E9315886FFF0E9415F7
:1019B000896FFF0E95158A6F7F0E96158B6F885174
:1019C00089118A118B11D8B4E8EF0CF0EAEF0CF012
:1019D000EEEF0CF0010E986FF7EF0CF080A1F3EF33
:1019E0000CF0F5EF0CF0F7EF0CF0EAEF0CF098517B
:1019F000D8B4FDEF0CF0FFEF0CF023EF0DF0010E6B
:101A00008027000E81238223832383A10AEF0DF018
:101A10000CEF0DF023EF0DF080C088F081C089F04D
:101A200082C08AF083C08BF08B358B338A33893345
:101A3000883388C080F089C081F08AC082F08BC072
:101A400083F0914B922B92BF2EEF0DF0925108E153
:101A50009129D8A02EEF0DF030EF0DF03BEF0DF0F7
:101A6000000E926F9169000E806F000E816F000E64
:101A7000826F000E836F92BF48EF0DF0925106E126
:101A80009105D8B046EF0DF048EF0DF056EF0DF090
:101A9000000E926F000E916F000E806F000E816F2E
:101AA000000E826F000E836F000E906F91C097F052
:101AB00097A15DEF0DF05FEF0DF062EF0DF0828FFB
:101AC00063EF0DF0829FD8909731836F19EF0CF080
:101AD00012002450800B316E24502424386E23AE23
:101AE00074EF0DF076EF0DF077EF0DF03880385091
:101AF000D8B47DEF0DF07FEF0DF094EF0DF03828A6
:101B0000D8A485EF0DF087EF0DF08FEF0DF0000EEC
:101B1000216E000E226E000E236E000E246E238EA8
:101B2000000E246E9CEF0DF0000E216E000E226E52
:101B3000000E236E000E246E2850800B311A2850A0
:101B40002824396E27AEA7EF0DF0A9EF0DF0AAEF0C
:101B50000DF039803950D8B4B0EF0DF0B2EF0DF080
:101B6000C7EF0DF03928D8A4B8EF0DF0BAEF0DF09B
:101B7000C2EF0DF0000E256E000E266E000E276ED1
:101B8000000E286E278E000E286ECFEF0DF0000E8F
:101B9000256E000E266E000E276E000E286E255054
:101BA000261027102810D8A4D8EF0DF0DAEF0DF08A
:101BB000F2EF0DF0000E216E000E226E000E236E6D
:101BC000000E246E800E23127F0E24123150241238
:101BD00021C021F022C022F023C023F024C024F031
:101BE00035EF0FF03850D8A4F8EF0DF0FAEF0DF004
:101BF00004EF0EF0000E216E000E226E000E236E1A
:101C0000000E246E35EF0FF0395038C029F02A6AE3
:101C1000295E000E2A5A7F0E2924326E000E2A20D9
:101C2000336E21C02DF022C02EF023C02FF024C02F
:101C300030F0000E216E000E226E000E236E000E9C
:101C4000246E000E346E000E356E000E366E000EE1
:101C5000376E000E396E65EF0EF03950D8B433EFA1
:101C60000EF035EF0EF04CEF0EF0D8902D362E36EC
:101C70002F363036D890213622362336243637AEEA
:101C800044EF0EF046EF0EF047EF0EF02180D890B3
:101C9000343635363636373625502D5C26502E589C
:101CA00027502F5828503058D8A059EF0EF05BEF2E
:101CB0000EF064EF0EF0378C25502D5E26502E5A14
:101CC00027502F5A2850305A392A190E39646BEF91
:101CD0000EF06DEF0EF02DEF0EF02D502E102F1098
:101CE0003010D8B476EF0EF078EF0EF090EF0EF0E3
:101CF000348090EF0EF0D8902136223623362436E9
:101D000037AE85EF0EF087EF0EF088EF0EF02180F2
:101D1000D89034363536363637363206D8A03306C4
:101D200023AE95EF0EF097EF0EF07BEF0EF0000E66
:101D3000396E37AE9EEF0EF0A0EF0EF0C4EF0EF04E
:101D4000FF0E3414296EFF0E35142A6EFF0E361462
:101D50002B6E7F0E37142C6E29502A102B102C104E
:101D6000D8B4B5EF0EF0B7EF0EF0BBEF0EF0010EEA
:101D7000396EC4EF0EF021A0C0EF0EF0C2EF0EF0EE
:101D8000C4EF0EF0B7EF0EF03950D8B4CAEF0EF032
:101D9000CCEF0EF0F0EF0EF0010E2126000E222205
:101DA0002322242224A0D7EF0EF0D9EF0EF0F0EF7B
:101DB0000EF021C029F022C02AF023C02BF024C04D
:101DC0002CF02C342C322B322A32293229C021F02B
:101DD0002AC022F02BC023F02CC024F0324A332A30
:101DE00033BEFBEF0EF0335008E13228D8A0FBEFF2
:101DF0000EF0FDEF0EF008EF0FF0000E336E3268BC
:101E0000000E216E000E226E000E236E000E246E58
:101E100033BE15EF0FF0335006E13204D8B013EFA4
:101E20000FF015EF0FF023EF0FF0000E336E000EE2
:101E3000326E000E216E000E226E000E236E000E1A
:101E4000246E000E316E32C038F038A02AEF0FF049
:101E50002CEF0FF02FEF0FF0238E30EF0FF0239EBB
:101E6000D8903830246EE6EF0DF0120083908698FB
:101E7000840E0F01116F000E196F000E216F000EFE
:101E8000266F010E2E6FF60E886EC10E896E3F0E04
:101E90008A6E4D0E8B6E090E8C6E400E106F000E0A
:101EA000186F0C0E206F000E256F000E2D6F800E28
:101EB000606E000E596F000E5A6F000E5B6F1F0EA2
:101EC000576F000E586F320E0001A36F000EA46F03
:101ED000000EA56F000EA66FBAEC17F0320E0001CF
:101EE000A36F000EA46F000EA56F000EA66F6AEC24
:101EF00019F0320E0001A36F000EA46F000EA56F43
:101F0000000EA66F76EC16F0320E0001A36F000EE5
:101F1000A46F000EA56F000EA66F9EEC15F0320E9A
:101F20000001A36F000EA46F000EA56F000EA66F38
:101F300059EC14F0320E0001A36F000EA46F000ED6
:101F4000A56F000EA66FFEEC18F0320E0001A36F15
:101F5000000EA46F000EA56F000EA66F40EC1AF0E5
:101F6000320E0001A36F000EA46F000EA56F000ECD
:101F7000A66FD5EC19F0320E0001A36F000EA46F0E
:101F8000000EA56F000EA66FE2EC16F0320E0001F7
:101F9000A36F000EA46F000EA56F000EA66F0AECD3
:101FA00016F0320E0001A36F000EA46F000EA56F95
:101FB000000EA66F32EC15F0320E0001A36F000E7A
:101FC000A46F000EA56F000EA66FC6EC14F0320EC3
:101FD0000001A36F000EA46F000EA56F000EA66F88
:101FE00092EC18F0320E0001A36F000EA46F000EE9
:101FF000A56F000EA66F26EC18F0C80E0001A36FA7
:10200000000EA46F000EA56F000EA66F4EEC17F029
:10201000000E956E220E936E280E966E000E986E30
:10202000BC68550EAE6E9C0EAC6E7F0EAB6E000E95
:10203000AA6E9C0EA86E7F0EA76E000EA66E050EF1
:102040000E01FD6F060EFE6F0F0EFA6F100EFB6F86
:10205000130EB76F140EB86F180E8D6F0B0E0F01A5
:10206000006F370ECF6E010ED26E900EBD6E010E58
:10207000BF6E370EC36E010EC66EE00EB16E010E5E
:10208000B36E0E019E999E9D9E8B9D9D9D899D8FF9
:102090009F979E85220E9B6FF28EF28EF28CF28AB3
:1020A000F28CC289BA89C29BBA9BC681BE81C69393
:1020B000BE93C695BE95C697BE97C689BE89C68B88
:1020C000BE8BCD91C581BD81CD9FC58FBD9F0F01B9
:1020D0001B851C850B8D0C8D1B871C971381148110
:1020E0001B8B1C8B868ADEEC13F0B6EC1DF0000E09
:1020F0000001766F000E6FEC1DF0120E0001766F7E
:102100000FEC1DF0000E0001766F010E6FEC1DF05C
:10211000010E0001766F0FEC1DF0290E0001A96F72
:10212000960EA86F7F0EE82EFED7A82FFCD7A92FFA
:10213000FAD7120000017A6F00017A51D8B4A3EFE8
:1021400010F0A5EF10F0C7EF10F075BFACEF10F076
:10215000AAEF10F0C7EF10F072C076F073C077F0FE
:1021600074C078F075C079F0761F771F781F791FDB
:10217000762B000E77237823792376C07CF077C006
:102180007DF078C07EF079C07FF0CFEF10F072C0A4
:102190007CF073C07DF074C07EF075C07FF072512A
:1021A000731174117511D8A4D8EF10F0DAEF10F094
:1021B000E4EF10F0000E726F000E736F000E746F7C
:1021C000000E756F75EF11F0960E7B6FEEEF10F04D
:1021D0007B2BD8907F337E337D337C33000E7C1590
:1021E000766F000E7D15776F000E7E15786FFE0EF0
:1021F0007F15796F7651771178117911D8A403EF93
:1022000011F005EF11F0E8EF10F013EF11F07B2B58
:10221000010E7C27000E7D237E237F23D8907F3301
:102220007E337D337C33000E7C15766F000E7D157A
:10223000776F000E7E15786FFF0E7F15796F7651E0
:10224000771178117911D8A428EF11F02AEF11F045
:1022500007EF11F032EF11F07B07D8907C377D3714
:102260007E377F377EBF37EF11F039EF11F041EF46
:1022700011F0020E7B613FEF11F041EF11F02CEFF6
:1022800011F07BB146EF11F048EF11F049EF11F07A
:102290007E9FD8907B337BC076F0776B786B796BC1
:1022A00076C079F0786B776B766B76517C137751CB
:1022B0007D1378517E1379517F137A51D8B463EF2F
:1022C00011F065EF11F06DEF11F075BF6CEF11F0CB
:1022D0006AEF11F06DEF11F07F8F7CC072F07DC05E
:1022E00073F07EC074F07FC075F012001B6E1B503F
:1022F000D8B47DEF11F07FEF11F0A1EF11F016BE11
:1023000086EF11F084EF11F0A1EF11F013C017F078
:1023100014C018F015C019F016C01AF0171E181EB8
:10232000191E1A1E172A000E182219221A2217C067
:102330001DF018C01EF019C01FF01AC020F0A9EF40
:1023400011F013C01DF014C01EF015C01FF016C010
:1023500020F01350141015101610D8A4B2EF11F07D
:10236000B4EF11F0BEEF11F0000E136E000E146EFC
:10237000000E156E000E166E4FEF12F0960E1C6ECC
:10238000C8EF11F01C2AD89020321F321E321D32A5
:10239000000E1D14176E000E1E14186E000E1F1472
:1023A000196EFE0E20141A6E1750181019101A10FC
:1023B000D8A4DDEF11F0DFEF11F0C2EF11F0EDEF77
:1023C00011F01C2A010E1D26000E1E221F222022A3
:1023D000D89020321F321E321D32000E1D14176E8F
:1023E000000E1E14186E000E1F14196EFF0E20141E
:1023F0001A6E1750181019101A10D8A402EF12F004
:1024000004EF12F0E1EF11F00CEF12F01C06D8907F
:102410001D361E361F3620361FBE11EF12F013EF89
:1024200012F01BEF12F0020E1C6019EF12F01BEFFE
:1024300012F006EF12F01CB020EF12F022EF12F0B3
:1024400023EF12F01F9ED8901C321CC017F0186AA0
:10245000196A1A6A17C01AF0196A186A176A1750A7
:102460001D1218501E1219501F121A5020121B5004
:10247000D8B43DEF12F03FEF12F047EF12F016BE66
:1024800046EF12F044EF12F047EF12F0208E1DC01D
:1024900013F01EC014F01FC015F020C016F012007B
:1024A000000E0A6E08BE59EF12F057EF12F063EFFC
:1024B00012F0081E071E061E056C000E06220722DB
:1024C0000822010E0A6E04BE6AEF12F068EF12F0E5
:1024D00074EF12F0041E031E021E016C000E022295
:1024E00003220422010E0A1A000E0B6E000E0C6E5F
:1024F000000E0D6E000E0E6E05500610071008102F
:10250000D8B485EF12F087EF12F0BDEF12F0010E94
:10251000096E91EF12F0D890053606360736083668
:10252000092A08AE96EF12F098EF12F08BEF12F036
:10253000D8900B360C360D360E360550015C065021
:1025400002580750035808500458D8A0AAEF12F0B8
:10255000ACEF12F0B5EF12F00550015E0650025AD2
:102560000750035A0850045A0B80D890083207329B
:1025700006320532092E98EF12F00A50D8B4C3EF94
:1025800012F0C5EF12F0CDEF12F00E1E0D1E0C1E54
:102590000B6C000E0C220D220E220BC001F00CC0A1
:1025A00002F00DC003F00EC004F0120000019B35D4
:1025B0009C35A26FA251D8A4E0EF12F0E2EF12F026
:1025C000ECEF12F0000E996F000E9A6F000E9B6FE9
:1025D000000E9C6F59EF13F099C09DF09AC09EF0C9
:1025E0009BC09FF09CC0A0F0200EFCEF12F0D89092
:1025F000A0339F339E339D33E82EF7EF12F09D51A9
:10260000A16F9B8FFF0E9917FF0E9A17FF0E9B1756
:10261000000E9C17960EA25FA2BF13EF13F011EFEE
:1026200013F029EF13F0A251800A970FD8B01BEFD7
:1026300013F01DEF13F01FEF13F0E2EF12F0D8903C
:102640009C339B339A339933A23F1FEF13F041EF32
:1026500013F01F0EA2652FEF13F031EF13F039EFD7
:1026600013F0E2EF12F0D89099379A379B379C37E6
:10267000A207A251D8A43FEF13F041EF13F033EFBC
:1026800013F0A151D8B447EF13F049EF13F051EF15
:1026900013F09C1F9B1F9A1F996D000E9A239B237A
:1026A0009C2399C099F09AC09AF09BC09BF09CC063
:1026B0009CF01200000162356335696F6951D8A43E
:1026C00064EF13F066EF13F070EF13F0000E606F1D
:1026D000000E616F000E626F000E636FDDEF13F08E
:1026E00060C064F061C065F062C066F063C067F00E
:1026F000200E80EF13F0D890673366336533643370
:10270000E82E7BEF13F06451686F628FFF0E601745
:10271000FF0E6117FF0E6217000E6317960E695FBA
:1027200069BF97EF13F095EF13F0ADEF13F0695118
:10273000800A970FD8B09FEF13F0A1EF13F0A3EF2B
:1027400013F066EF13F0D890633362336133603374
:10275000693FA3EF13F0C5EF13F01F0E6965B3EFE8
:1027600013F0B5EF13F0BDEF13F066EF13F0D89050
:10277000603761376237633769076951D8A4C3EF9F
:1027800013F0C5EF13F0B7EF13F06851D8B4CBEFE7
:1027900013F0CDEF13F0D5EF13F0631F621F611F2D
:1027A000606D000E61236223632360C060F061C02E
:1027B00061F062C062F063C063F01200849A849892
:1027C000040E0001786F400E776F260EE82EFED7BC
:1027D000772FFCD7782FFAD70000030ED8EC1BF028
:1027E000680E0001776FE40EE82EFED7772FFCD736
:1027F0000000030ED8EC1BF0680E0001776FE40EAA
:10280000E82EFED7772FFCD70000030ED8EC1BF084
:10281000680E0001776FE40EE82EFED7772FFCD705
:102820000000020ED8EC1BF0680E0001776FE40E7A
:10283000E82EFED7772FFCD70000000E0001746F42
:10284000280E31EC1DF0680E0001776FE40EE82EC3
:10285000FED7772FFCD70000000E0001746F0C0E1E
:1028600031EC1DF0A70E0001776F3A0EE82EFED76F
:10287000772FFCD70000B6EC1DF0680E0001776FD3
:10288000E40EE82EFED7772FFCD70000000E0001E3
:10289000746F060E31EC1DF0680E0001776FE40EC8
:1028A000E82EFED7772FFCD70000B6EC1DF0848A07
:1028B0001200960E0001846F430E856F230E866F03
:1028C000400E876FA3C072F0A4C073F0A5C074F06F
:1028D000A6C075F0000E9AEC10F072C080F073C0C4
:1028E00081F074C082F075C083F09BEC0BF080C067
:1028F00099F081C09AF082C09BF083C09CF0D6EC26
:1029000012F099C0A3F09AC0A4F09BC0A5F09CC09F
:10291000A6F0000E0001AA6F000EAB6F000EAC6FA8
:10292000000EAD6FB5EF14F083A099EF14F09DEF9A
:1029300014F0A76BA72B9FEF14F00001A76B835037
:10294000A719FE0BA719836E350E0001A76F000EA5
:10295000E82EFED7A72FFCD700D00000010E000103
:10296000AA27000EAB23AC23AD23A351AA5DA4512B
:10297000AB59A551AC59A651AD59D8A0C2EF14F02E
:10298000C4EF14F094EF14F083901200F80E0001DD
:10299000846F530E856FA30E866F3F0E876FA3C0A3
:1029A00072F0A4C073F0A5C074F0A6C075F0000E5C
:1029B0009AEC10F072C080F073C081F074C082F0A5
:1029C00075C083F09BEC0BF080C099F081C09AF049
:1029D00082C09BF083C09CF0D6EC12F099C0A3F0AB
:1029E0009AC0A4F09BC0A5F09CC0A6F0000E000108
:1029F000AA6F000EAB6F000EAC6F000EAD6F21EF33
:102A000015F083A006EF15F00AEF15F0A76BA72BC2
:102A10000CEF15F00001A76B8350A719FE0BA71947
:102A2000836E1B0E0001A76F820EE82EFED7A72F24
:102A3000FCD70000010E0001AA27000EAB23AC2337
:102A4000AD23A351AA5DA451AB59A551AC59A651D0
:102A5000AD59D8A02EEF15F030EF15F001EF15F0BD
:102A600083901200C70E0001846F4B0E856FB70E66
:102A7000866F3F0E876FA3C072F0A4C073F0A5C02D
:102A800074F0A6C075F0000E9AEC10F072C080F0E1
:102A900073C081F074C082F075C083F09BEC0BF0C2
:102AA00080C099F081C09AF082C09BF083C09CF0F6
:102AB000D6EC12F099C0A3F09AC0A4F09BC0A5F088
:102AC0009CC0A6F0000E0001AA6F000EAB6F000EB6
:102AD000AC6F000EAD6F8DEF15F083A072EF15F0A7
:102AE00076EF15F0A76BA72B78EF15F00001A76B19
:102AF0008350A719FE0BA719836E1E0E0001A76F46
:102B0000C00EE82EFED7A72FFCD70000010E000153
:102B1000AA27000EAB23AC23AD23A351AA5DA45179
:102B2000AB59A551AC59A651AD59D8A09AEF15F0A3
:102B30009CEF15F06DEF15F083901200640E00010C
:102B4000846F3B0E856F370E866F400E876FA3C074
:102B500072F0A4C073F0A5C074F0A6C075F0000EAA
:102B60009AEC10F072C080F073C081F074C082F0F3
:102B700075C083F09BEC0BF080C099F081C09AF097
:102B800082C09BF083C09CF0D6EC12F099C0A3F0F9
:102B90009AC0A4F09BC0A5F09CC0A6F0000E000156
:102BA000AA6F000EAB6F000EAC6F000EAD6FF9EFA9
:102BB00015F083A0DEEF15F0E2EF15F0A76BA72B61
:102BC000E4EF15F00001A76B8350A719FE0BA719BE
:102BD000836E3C0E0001A76F7C0EE82EFED7A72F58
:102BE000FCD70000010E0001AA27000EAB23AC2386
:102BF000AD23A351AA5DA451AB59A551AC59A6511F
:102C0000AD59D8A006EF16F008EF16F0D9EF15F081
:102C1000839012000E0E0001846F2D0E856FC20E80
:102C2000866F3F0E876FA3C072F0A4C073F0A5C07B
:102C300074F0A6C075F0000E9AEC10F072C080F02F
:102C400073C081F074C082F075C083F09BEC0BF010
:102C500080C099F081C09AF082C09BF083C09CF044
:102C6000D6EC12F099C0A3F09AC0A4F09BC0A5F0D6
:102C70009CC0A6F0000E0001AA6F000EAB6F000E04
:102C8000AC6F000EAD6F65EF16F083A04AEF16F043
:102C90004EEF16F0A76BA72B50EF16F00001A76BB5
:102CA0008350A719FE0BA719836E200E0001A76F92
:102CB000840EE82EFED7A72FFCD70000010E0001DE
:102CC000AA27000EAB23AC23AD23A351AA5DA451C8
:102CD000AB59A551AC59A651AD59D8A072EF16F019
:102CE00074EF16F045EF16F0839012000E0E0001FF
:102CF000846F2D0E856F420E866F400E876FA3C0C6
:102D000072F0A4C073F0A5C074F0A6C075F0000EF8
:102D10009AEC10F072C080F073C081F074C082F041
:102D200075C083F09BEC0BF080C099F081C09AF0E5
:102D300082C09BF083C09CF0D6EC12F099C0A3F047
:102D40009AC0A4F09BC0A5F09CC0A6F0000E0001A4
:102D5000AA6F000EAB6F000EAC6F000EAD6FD1EF1F
:102D600016F083A0B6EF16F0BAEF16F0A76BA72BFC
:102D7000BCEF16F00001A76B8350A719FE0BA71933
:102D8000836E400E0001A76F090EE82EFED7A72F15
:102D9000FCD700D0010E0001AA27000EAB23AC2304
:102DA000AD23A351AA5DA451AB59A551AC59A6516D
:102DB000AD59D8A0DEEF16F0E0EF16F0B1EF16F047
:102DC00083901200230E0001846FDB0E856FD90EF5
:102DD000866F3F0E876FA3C072F0A4C073F0A5C0CA
:102DE00074F0A6C075F0000E9AEC10F072C080F07E
:102DF00073C081F074C082F075C083F09BEC0BF05F
:102E000080C099F081C09AF082C09BF083C09CF092
:102E1000D6EC12F099C0A3F09AC0A4F09BC0A5F024
:102E20009CC0A6F0000E0001AA6F000EAB6F000E52
:102E3000AC6F000EAD6F3DEF17F083A022EF17F0DF
:102E400026EF17F0A76BA72B28EF17F00001A76B51
:102E50008350A719FE0BA719836E240E0001A76FDC
:102E60005C0EE82EFED7A72FFCD70000010E000154
:102E7000AA27000EAB23AC23AD23A351AA5DA45116
:102E8000AB59A551AC59A651AD59D8A04AEF17F08E
:102E90004CEF17F01DEF17F0839012006A0E00013F
:102EA000846FBC0E856F740E866F3F0E876FA3C054
:102EB00072F0A4C073F0A5C074F0A6C075F0000E47
:102EC0009AEC10F072C080F073C081F074C082F090
:102ED00075C083F09BEC0BF080C099F081C09AF034
:102EE00082C09BF083C09CF0D6EC12F099C0A3F096
:102EF0009AC0A4F09BC0A5F09CC0A6F0000E0001F3
:102F0000AA6F000EAB6F000EAC6F000EAD6FA9EF95
:102F100017F083A08EEF17F092EF17F0A76BA72B97
:102F200094EF17F00001A76B8350A719FE0BA719A8
:102F3000836E140E0001A76FDC0EE82EFED7A72FBC
:102F4000FCD70000010E0001AA27000EAB23AC2322
:102F5000AD23A351AA5DA451AB59A551AC59A651BB
:102F6000AD59D8A0B6EF17F0B8EF17F089EF17F00A
:102F700083901200A60E0001846F9B0E856F740E65
:102F8000866F400E876FA3C072F0A4C073F0A5C017
:102F900074F0A6C075F0000E9AEC10F072C080F0CC
:102FA00073C081F074C082F075C083F09BEC0BF0AD
:102FB00080C099F081C09AF082C09BF083C09CF0E1
:102FC000D6EC12F099C0A3F09AC0A4F09BC0A5F073
:102FD0009CC0A6F0000E0001AA6F000EAB6F000EA1
:102FE000AC6F000EAD6F15EF18F083A0FAEF17F07D
:102FF000FEEF17F0A76BA72B00EF18F00001A76BEF
:103000008350A719FE0BA719836E500E0001A76FFE
:10301000690EE82EFED7A72FFCD700D0010E0001C5
:10302000AA27000EAB23AC23AD23A351AA5DA45164
:10303000AB59A551AC59A651AD59D8A022EF18F003
:1030400024EF18F0F5EF17F083901200370E00010F
:10305000846F890E856F810E866F3F0E876FA3C0C8
:1030600072F0A4C073F0A5C074F0A6C075F0000E95
:103070009AEC10F072C080F073C081F074C082F0DE
:1030800075C083F09BEC0BF080C099F081C09AF082
:1030900082C09BF083C09CF0D6EC12F099C0A3F0E4
:1030A0009AC0A4F09BC0A5F09CC0A6F0000E000141
:1030B000AA6F000EAB6F000EAC6F000EAD6F81EF0C
:1030C00018F083A066EF18F06AEF18F0A76BA72B33
:1030D0006CEF18F00001A76B8350A719FE0BA7191E
:1030E000836E160E0001A76F050EE82EFED7A72FE0
:1030F000FCD700D0010E0001AA27000EAB23AC23A1
:10310000AD23A351AA5DA451AB59A551AC59A65109
:10311000AD59D8A08EEF18F090EF18F061EF18F0CD
:1031200083901200730E0001846F680E856F910EFC
:10313000866F3F0E876FA3C072F0A4C073F0A5C066
:1031400074F0A6C075F0000E9AEC10F072C080F01A
:1031500073C081F074C082F075C083F09BEC0BF0FB
:1031600080C099F081C09AF082C09BF083C09CF02F
:10317000D6EC12F099C0A3F09AC0A4F09BC0A5F0C1
:103180009CC0A6F0000E0001AA6F000EAB6F000EEF
:10319000AC6F000EAD6FEDEF18F083A0D2EF18F01A
:1031A000D6EF18F0A76BA72BD8EF18F00001A76B8C
:1031B0008350A719FE0BA719836E180E0001A76F85
:1031C000990EE82EFED7A72FFCD700D0010E0001E4
:1031D000AA27000EAB23AC23AD23A351AA5DA451B3
:1031E000AB59A551AC59A651AD59D8A0FAEF18F07A
:1031F000FCEF18F0CDEF18F083901200730E000171
:10320000846F680E856F110E866F400E876FA3C0A6
:1032100072F0A4C073F0A5C074F0A6C075F0000EE3
:103220009AEC10F072C080F073C081F074C082F02C
:1032300075C083F09BEC0BF080C099F081C09AF0D0
:1032400082C09BF083C09CF0D6EC12F099C0A3F032
:103250009AC0A4F09BC0A5F09CC0A6F0000E00018F
:10326000AA6F000EAB6F000EAC6F000EAD6F59EF82
:1032700019F083A03EEF19F042EF19F0A76BA72BCE
:1032800044EF19F00001A76B8350A719FE0BA71993
:10329000836E300E0001A76F340EE82EFED7A72FE5
:1032A000FCD70000010E0001AA27000EAB23AC23BF
:1032B000AD23A351AA5DA451AB59A551AC59A65158
:1032C000AD59D8A066EF19F068EF19F039EF19F091
:1032D00083901200E70E0001846FFB0E856F590E7C
:1032E000866F400E876FA3C072F0A4C073F0A5C0B4
:1032F00074F0A6C075F0000E9AEC10F072C080F069
:1033000073C081F074C082F075C083F09BEC0BF049
:1033100080C099F081C09AF082C09BF083C09CF07D
:10332000D6EC12F099C0A3F09AC0A4F09BC0A5F00F
:103330009CC0A6F0000E0001AA6F000EAB6F000E3D
:10334000AC6F000EAD6FC4EF19F083A0AAEF19F0B7
:10335000AEEF19F0A76BA72BB0EF19F00001A76B28
:103360008350A719FE0BA719836E470E0001A76FA4
:10337000C50EE82EFED7A72FFCD7010E0001AA2705
:10338000000EAB23AC23AD23A351AA5DA451AB59CE
:10339000A551AC59A651AD59D8A0D1EF19F0D3EF32
:1033A00019F0A5EF19F083901200E10E0001846F6F
:1033B0007A0E856FF40E866F3F0E876FA3C072F092
:1033C000A4C073F0A5C074F0A6C075F0000E9AEC0E
:1033D00010F072C080F073C081F074C082F075C0CC
:1033E00083F09BEC0BF080C099F081C09AF082C012
:1033F0009BF083C09CF0D6EC12F099C0A3F09AC069
:10340000A4F09BC0A5F09CC0A6F0000E0001AA6F1E
:10341000000EAB6F000EAC6F000EAD6F2FEF1AF009
:1034200083A015EF1AF019EF1AF0A76BA72B1BEF6B
:103430001AF00001A76B8350A719FE0BA719836E22
:10344000280E0001A76FAF0EE82EFED7A72FFCD7DE
:10345000010E0001AA27000EAB23AC23AD23A3511C
:10346000AA5DA451AB59A551AC59A651AD59D8A0EC
:103470003CEF1AF03EEF1AF010EF1AF083901200B2
:10348000370E0001846F890E856F010E866F400E26
:10349000876FA3C072F0A4C073F0A5C074F0A6C07B
:1034A00075F0000E9AEC10F072C080F073C081F0DD
:1034B00074C082F075C083F09BEC0BF080C099F073
:1034C00081C09AF082C09BF083C09CF0D6EC12F0D1
:1034D00099C0A3F09AC0A4F09BC0A5F09CC0A6F030
:1034E000000E0001AA6F000EAB6F000EAC6F000E55
:1034F000AD6F9AEF1AF083A080EF1AF084EF1AF004
:10350000A76BA72B86EF1AF00001A76B8350A719B2
:10351000FE0BA719836E2B0E0001A76F0D0EE82E70
:10352000FED7A72FFCD7010E0001AA27000EAB2360
:10353000AC23AD23A351AA5DA451AB59A551AC59FD
:10354000A651AD59D8A0A7EF1AF0A9EF1AF07BEF5A
:103550001AF083901200E10E256E7A0E266EF40E9C
:10356000276E3F0E286E6AC013F06BC014F06CC05B
:1035700015F06DC016F0000E76EC11F013C021F0BE
:1035800014C022F015C023F016C024F069EC0DF031
:1035900021C060F022C061F023C062F024C063F05B
:1035A0005AEC13F060C06AF061C06BF062C06CF05E
:1035B00063C06DF0000E0001AA6F000EAB6F000E2D
:1035C000AC6F000EAD6F03EF1BF083A0EAEF1AF0B3
:1035D000EEEF1AF03A6A3A2AEFEF1AF03A6A83509D
:1035E0003A18FE0B3A18836E280E3A6EAF0EE82E8C
:1035F000FED73A2EFCD70000010E0001AA27000ECC
:10360000AB23AC23AD236A51AA5D6B51AB596C510E
:10361000AC596D51AD59D8A010EF1BF012EF1BF053
:10362000E5EF1AF083901200000E1E6E1CBE1DEF17
:103630001BF01BEF1BF023EF1BF01B6C1C1ED8B004
:103640001C2A010E1E6E1ABE2AEF1BF028EF1BF07B
:1036500030EF1BF0196C1A1ED8B01A2A010E1E1A70
:10366000000E206E000E1F6E1B501C10D8B43BEFD6
:103670001BF03DEF1BF065EF1BF0010E1D6E45EFDB
:103680001BF0D8901B361C361D2A1CAE4AEF1BF0CF
:103690004CEF1BF041EF1BF0D8901F3620361B502B
:1036A000195C1C501A58D8A058EF1BF05AEF1BF0A9
:1036B0005FEF1BF01B50195E1C501A5A1F80D890E8
:1036C0001C321B321D2E4CEF1BF01E50D8B46BEF7A
:1036D0001BF06DEF1BF071EF1BF01F6C201ED8B0BC
:1036E000202A1FC019F020C01AF01200000E0C6E24
:1036F0000ABE7FEF1BF07DEF1BF085EF1BF0096C1E
:103700000A1ED8B00A2A010E0C6E08BE8CEF1BF000
:103710008AEF1BF092EF1BF0076C081ED8B0082A46
:10372000010E0C1A000E0E6E000E0D6E09500A10DE
:10373000D8B49DEF1BF09FEF1BF0C7EF1BF0010EFD
:103740000B6EA7EF1BF0D89009360A360B2A0AAE8B
:10375000ACEF1BF0AEEF1BF0A3EF1BF0D8900D36D3
:103760000E360950075C0A500858D8A0BAEF1BF073
:10377000BCEF1BF0C1EF1BF00950075E0A50085A5E
:103780000D80D8900A3209320B2EAEEF1BF00C5090
:10379000D8B4CDEF1BF0CFEF1BF0D3EF1BF00D6CC7
:1037A0000E1ED8B00E2A0DC007F00EC008F0120091
:1037B0000001736F000173B1E0EF1BF0E4EF1BF049
:1037C000726B722BE6EF1BF00001726B724772474F
:1037D000724784507219F70B7219846E73B3F3EF4A
:1037E0001BF0F7EF1BF0726B722BF9EF1BF000016F
:1037F000726B7247724784507219FB0B7219846E98
:1038000073B505EF1CF009EF1CF0726B722B0BEF18
:103810001CF00001726B724784507219FD0B721913
:10382000846E73B716EF1CF01AEF1CF0726B722BDC
:103830001CEF1CF00001726B7233723386507219E8
:103840007F0B7219866E8488E40E00D000D0E82EBB
:10385000FCD700D000D08498E40E00D000D0E82E31
:10386000FCD700D000D01200000E186E14BE3DEF41
:103870001CF03BEF1CF043EF1CF0136C141ED8B08F
:10388000142A010E186E16BE4AEF1CF048EF1CF009
:103890004EEF1CF0156C161ED8B0162A15501610D7
:1038A000D8B455EF1CF057EF1CF07BEF1CF0010E65
:1038B000176E5FEF1CF0D89015361636172A16AE25
:1038C00064EF1CF066EF1CF05BEF1CF01550135C0E
:1038D00016501458D8A06FEF1CF071EF1CF075EF64
:1038E0001CF01550135E1650145AD890163215322B
:1038F000172E66EF1CF01850D8B481EF1CF083EF40
:103900001CF087EF1CF0136C141ED8B0142A13C0DF
:1039100013F014C014F01200146E14B092EF1CF0E7
:1039200096EF1CF0136A132A97EF1CF0136A1346E4
:103930001346134684501318F70B1318846E14B2F1
:10394000A4EF1CF0A8EF1CF0136A132AA9EF1CF0D7
:10395000136A1346134684501318FB0B1318846E16
:1039600014B4B5EF1CF0B9EF1CF0136A132ABAEFC8
:103970001CF0136A134684501318FD0B1318846E41
:1039800014B6C5EF1CF0C9EF1CF0136A132ACAEF76
:103990001CF0136A13321332865013187F0B13185E
:1039A000866E8488E40E00D000D0E82EFCD700D0CC
:1039B00000D08498E40E00D000D0E82EFCD700D0D0
:1039C00000D01200A00EF66E3B0EF76E000EF86EE1
:1039D00000EEBAF010EE08F00900F5CFEEFFE5506A
:1039E000E150FAE1A80EF66E3B0EF76E000EF86E8F
:1039F0000900F5CF4BF00900F5CF4CF000EEAAF02E
:103A0000100EEE6AE806FDE100EE3BF0100EEE6AE5
:103A1000E806FDE14D904D920001C6EF1DF020EF4C
:103A20001DF0010E0001746F76C0F6FF0F0EF76EE9
:103A3000000EF86E0800F55031EC1DF00001762BF9
:103A400076C0F6FF0F0EF76E000EF86E0800F55008
:103A50000009D8A42EEF1DF030EF1DF011EF1DF07E
:103A600012000001756F00017451D8A43AEF1DF0E7
:103A70003CEF1DF03FEF1DF0849A40EF1DF0848A6B
:103A8000E40E00D000D0E82EFCD700D000D000011A
:103A900075390F0BD8EC1BF0000175510F0BD8ECEA
:103AA0001BF01200226E2150D8A459EF1DF05BEFDD
:103AB0001DF05EEF1DF0849A5FEF1DF0848AE40E26
:103AC00000D000D0E82EFCD700D000D022380F0B59
:103AD0008CEC1CF022500F0B8CEC1CF0120000013F
:103AE000776F849A00017751D8A479EF1DF07BEFAE
:103AF0001DF083EF1DF0000E746F7651800F31ECD6
:103B00001DF089EF1DF0000E746F7651C00F31EC7F
:103B10001DF01200246E849A2450D8A492EF1DF058
:103B200094EF1DF09CEF1DF0000E216E2350800FCE
:103B300052EC1DF0A2EF1DF0000E216E2350C00FBD
:103B400052EC1DF0120001500302F3CF05F0F4CF48
:103B500006F001500402F350062602500302F3500F
:103B6000062605C001F006C002F01200000E00019A
:103B7000746F010E31EC1DF02A0E0001766F8D0E70
:103B8000E82EFED7762FFCD700D0120036EC0FF0CF
:103B9000B6EC1DF086988782CCEF1DF081EF00F027
:0A3BA000D9530100D9530100182881
:020000040030CA
:0C0000008CD73EE79FFFFFCFFFFFFFFF04
:00000001FF
